:020000040800F2
:10000000401F002005010008E94800088F40000853
:1000100061480008A3110008214F000800000000FB
:10002000000000000000000000000000A94A0008D5
:10003000A711000800000000ED480008AB4A0008C6
:100040001F0100081F0100081F0100081F01000810
:100050001F0100081F0100081F0100081F01000800
:100060001F0100081F0100081F0100081F010008F0
:100070001F0100081F0100081F0100081F010008E0
:100080001F0100081F0100081F0100081F010008D0
:100090001F0100081F0100081F0100081F010008C0
:1000A0001F0100081F0100081F0100081F010008B0
:1000B0001F0100081F0100081F0100081F010008A0
:1000C0001F0100081F0100081F0100081F01000890
:1000D0001F0100081F010008014F0008114F000810
:1000E0001F0100081F0100081F010008DFF810D0E1
:1000F00000F076FE0048004771630008AFF300800F
:10010000401F00200648804706480047FEE7FEE7FC
:10011000FEE7FEE7FEE7FEE7FEE7FEE7FEE7FEE7B7
:100120003B4B0008ED000008202A04DB203A21FAAE
:1001300002F00021704721FA02F3D040C2F1200200
:10014000914008431946704740EA01039B0703D0DA
:1001500009E008C9121F08C0042AFAD203E011F806
:10016000013B00F8013B521EF9D27047D2B201E0C8
:1001700000F8012B491EFBD270470022F6E710B5AC
:1001800013460A4604461946FFF7F0FF204610BD05
:10019000421C10F8011B0029FBD1801A704703464E
:1001A00011F8012B00F8012B002AF9D118467047ED
:1001B0000022CBB20178994200D10246401C0029AE
:1001C000F8D11046704700000FB400B58DB010A9EB
:1001D00009900B9000914FF0FF300A9000200C9096
:1001E00005480690054807906A4609A80F9900F04F
:1001F00011FD0DB05DF814FB310C00084F0C000828
:100200002DE9FF5FD2E901A74FF0000891699946F7
:100210001446DDF838B0464601988847054659EA45
:100220000B0005D009E0A169761C019888470546B6
:10023000216A284688470028F5D1681C03D05FEA68
:10024000CA7005D015E04FF0FF3004B0BDE8F09F54
:100250002068011D2160D0F800800AE05FEACA70C2
:1002600001D108F8015BA169761C7F1E01988847BF
:100270000546002F1ADD681C18D0B9F1000F0DD00B
:10028000E81705EBD060421120F01F0059F822104A
:100290002A1A012090400142E0D107E0BBF1000F93
:1002A000DCD1216A284688470028D7D0E169019827
:1002B0008847BBF1000F07D1002E05DD5FEACA7049
:1002C00002D1002188F80010A068B84203DDBBF11C
:1002D000000F03D017B16FF00100B6E73046B4E766
:1002E0002DE9FF4F087883B09946FF2805D0491CB7
:1002F0002D2804D00024002008E000200BE0012479
:10030000F9E700EB800003EB4000491C0B78FF2B62
:10031000F7D104B1404200230293147819461D46D8
:100320002D2C01D02B2C04D1521C2D2C13D00024A9
:100330000294AA461478FF2C0FD00A25A3FB057857
:1003400001FB05814FF0000C03FB0C11521CE3195B
:100350004AEB0101EEE70124EAE7814453EA010098
:1003600002D019F5C87F06DA03980021C0E9001110
:1003700007B0BDE8F08F0025AE4E2F46DFF8B882FB
:10038000184600F009FDCDE90001B9F1000002DADC
:10039000C9F1000400E004460023A74A1AEB030B4E
:1003A00042EB045A12E0E00707D02A4633463846AB
:1003B000414600F02AFA074688462A463346104648
:1003C000194600F022FA05460E466410002CEAD1C8
:1003D000DDE90001B9F1000F5A46534606DA00F094
:1003E00086FA3A46434600F082FA05E000F00DFA3C
:1003F0003A46434600F009FA029A0AB181F00041F8
:10040000039AC2E90001B3E72DE9FF4F1F468DB003
:10041000D7E901464FF0FF382E2045464FF000093E
:100420000B90B9696D1C0E988847396A82468847D7
:100430000028F6D1BAF1FF3F0AD024F4D064002E90
:1004400011DDBAF12B0F08D0BAF12D0F0BD102E05C
:10045000404611B08DE744F48064B9696D1C0E9874
:1004600088478246761E6946600501D52D2000E04A
:100470002B208DF8000001F1010B0DF1200809E09F
:10048000B9696D1C0E98884782460F9844F4007431
:10049000761E0560002E02DDBAF1300FF0D00B9908
:1004A0008A453ED144F0800406E00F99681CA9F10A
:1004B000010944F400740860B9696D1C761E0E9839
:1004C000884782463028F0D02BE00B998A4505D129
:1004D000200603D444F08004761E18E0504604F051
:1004E00089FE08B30DF11301761E44F400748B45A8
:1004F00008D2AAF130000BF8010B200607D5A9F1AC
:10050000010003E0200602D409F101008146A005A4
:1005100002D50F99681C0860B9696D1C0E98884750
:100520008246002ED1DC53E0002E51DDBAF1650F7A
:1005300002D0BAF1450F4BD1A00549D5B9696D1C60
:1005400024F44074761E0E9888478246002E0CDDF7
:100550002B2804D0BAF12D0F07D144F48074B96967
:100560006D1C0E9888478246761EE00501D52D2128
:1005700000E02B2108F8011BCDF82C8021E00DF1C3
:100580002901761E44F4007488450CD2AAF130008B
:1005900010F0FF0088F8000002D10B99884509D9B6
:1005A00008F1010806E0E00501D5244801E042F227
:1005B0000F708146B9696D1C0E98884782460F9866
:1005C0000560002E04DD504604F014FE0028D6D14C
:1005D000F9690E988847FF208BF8000088F8000022
:1005E0000020069007904B466A4608A906A8FFF728
:1005F00077FEA00502D46FF001002AE714F0240F63
:100600000AD0E00714D1DDE906123868031D3B600B
:100610000068C0E900120BE0DDE9060100F070FAA5
:100620000146E00704D13868021D3A6000680160A5
:1006300028460EE7000014400000F03FF1D8FFFF0D
:1006400030B480EA010202F0004530F0004221F0AF
:10065000004013D090B1C30DD40DC2F31601C0F306
:100660001600E41A41F4000140F400027D34914286
:1006700001D3641C00E04900002C02DA30BC0020E9
:1006800070474FF400000023914201D3891A0343BD
:1006900040084FEA4101F7D151B1914202D14FF0E8
:1006A000004105E002D24FF0010101E06FF00101CD
:1006B00003EBC450284430BC00F0DABA2DE9FE4FF9
:1006C000804681EA0300C00F0C46009021F00041F3
:1006D00023F00045B8EB0200A94105D2404621466F
:1006E00090461C460B46024623F00040104347D07C
:1006F000270DC7F30A00C3F30A510290401A019074
:1007000040286BDAC3F3130040F4801B0098924634
:1007100020B10023D2EB030A63EB0B0B019859467F
:10072000C0F14002504600F04EFA06460D465046D3
:100730005946019A00F056FA10EB08006141002476
:1007400087EA115284EAE7731A4340D0009A62B3F1
:10075000019A012A4FEA075215DC001B61EB0201E6
:100760004FF0004202EA0752CDE90042001C41F579
:10077000801132462B4600F0C1FA03B0BDE8F08F7D
:1007800040462146F9E7001B61EB0201001C41F5E0
:10079000801300185B412018A2F5001747EB0301F6
:1007A00040EAD570B6196D4111E06D084FEA360682
:1007B00045EAC0754FEA0752001B61EB0201001CBD
:1007C00041F5801149084FEA300000195141324685
:1007D0002B4603B0BDE8F04F00F081BA009801222B
:1007E00040000023D0EB020263EBE0730098214647
:1007F0004FEAE074B8EB000061EB0401E9E783F035
:1008000000435BE781F0004158E72DE9FE4F81EAA4
:10081000030404F0004421F0004100944FF0000B69
:1008200023F0004350EA01045ED052EA03045BD097
:10083000C3F30A54C1F30A552C44A4F2F3340194CF
:10084000A0FB0254C1F3130141F48011C3F313035D
:1008500043F4801301FB024400FB034E840A970A11
:1008600044EA815447EA8357A4FB076802958D0A3E
:1008700005FB07854FEA932C04FB0C542705029DCA
:100880004FEA065847EA1637B5EB08056EEB070C3A
:10089000870E920E47EA811742EA8312A7FB0201F4
:1008A000B6EB0B0164EB00042B0D43EA0C335E182E
:1008B00044EB1C50DA465146E7FB0201C5F3130432
:1008C0004FEA0B3343EA14534FEA0432019C43EAE4
:1008D0000603A4F10C040294009CCDE900B400F0DE
:1008E0000DFA03B0BDE8F08F00200146F9E72DE9CD
:1008F000F04D81EA030404F0004B21F0004514465A
:100900004FF0000A23F0004150EA050220D054EADB
:1009100001021DD0C5F30A570246C5F31303C1F304
:100920001300C1F30A5640F4801543F48013A7EB7B
:100930000608101BD64608F2FD3873EB050002D3FB
:1009400008F1010801E092185B41B8F1000F03DAE9
:1009500000200146BDE8F08D00204FF480110646CE
:1009600084460EE0171B73EB050705D3121B63EBE0
:10097000050306434CEA010C49084FEA300092187F
:100980005B4150EA0107EDD152EA030012D082EA3E
:10099000040083EA0501084305D0101BAB4106D2D1
:1009A0000122002306E000224FF0004302E06FF036
:1009B000010253101AEB06004CEB085110EB0A0031
:1009C00041EB0B01BDE8F04D00F089B90EB5C10F48
:1009D00080EAE0700844CA07002140F233438DE802
:1009E0000E000A460B4600F089F903B000BD0EB5B3
:1009F00040F2334102910021CDE900110A460B4635
:100A000000F07CF903B000BD70B5C1F30A5201F0EB
:100A100000450024C1F3130140F2FF3341F480117B
:100A20009A4201DA002070BD40F233439A42A2F2AA
:100A3000334203DC5242FFF777FB00E090402C4347
:100A4000F1D0404270BDC1F30A5210B5C1F3130199
:100A500040F2FF3341F480119A4201DA002010BDC8
:100A600040F233439A42A2F2334203DC5242FFF790
:100A70005BFB10BD904010BD00F0004230F0004024
:100A80000AD0C10D01F56071C0F3160042EA0151B0
:100A9000C20840071143704700200146704700001C
:100AA00030B5041E71F1000404DB4FF000444042F5
:100AB00064EB0101141E73F1000405DB1C464FF0CA
:100AC0000043524263EB04038B4208BF824230BDB5
:100AD00030B5041E71F1000404DB4FF000444042C5
:100AE00064EB0101141E73F1000405DB1C464FF09A
:100AF0000043524263EB0403994208BF904230BD69
:100B000001F0004330B421F0004150EA010206D068
:100B10000A0DA2F56072C1F31301002A02DC30BC99
:100B200000207047440F44EAC104C100E01830BC03
:100B300000EBC25000F09CB830B50B4601460020D7
:100B40002022012409E021FA02F59D4205D303FA8F
:100B500002F5491B04FA02F52844151EA2F1010210
:100B6000F1DC30BD2DE9F05F0546002092469B4642
:100B700088460646814640241BE0284641464746B3
:100B80002246FFF7D1FA53465A46C01A914110D374
:100B900011461846224600F016F82D1A67EB010898
:100BA0004F4622460120002100F00DF817EB000906
:100BB0004E41201EA4F10104DFDC484631462A469E
:100BC0004346BDE8F09F202A04DB203A00FA02F1F8
:100BD000002070479140C2F1200320FA03F319432B
:100BE00090407047202A06DBCB17203A41FA02F0EA
:100BF00043EAE07306E041FA02F3D040C2F120027A
:100C00009140084319467047026811441378016007
:100C100018467047D16004495161044911620021AE
:100C20001161114600F0F4B8090C0008050E000827
:100C3000426842B1016811F8013B23B1521EC0E97C
:100C40000012184670470121C160881E7047426833
:100C50005AB1C368016843B983688B4205D0491E05
:100C6000521CC0E90012002070474FF0FF3070475F
:100C70000029A8BF7047401C490008BF20F00100B0
:100C8000704710B4B0FA80FC00FA0CF050EA01048E
:100C900004BF10BC704749B1CCF1200421FA04F420
:100CA00011FA0CF118BF012121430843A3EB0C01F9
:100CB000CB1D4FEA00614FEA102042BF002010BC5C
:100CC000704700EBC35010440029A4BF10BC70470C
:100CD000401C490008BF20F0010010BC704710B54F
:100CE000141E73F1000408DA401C41F1000192184F
:100CF0005B411A4301D120F0010010BD2DE9F04DF8
:100D000092469B4611B1B1FA81F202E0B0FA80F24C
:100D100020329046FFF757FF04460F4640EA0A008C
:100D200041EA0B0153465A46084313D0114653EA91
:100D3000010019D0C8F140025046FFF7F5F9054609
:100D40000E46504659464246FFF73DFF084305D040
:100D5000012004E020463946BDE8F08D002005431F
:100D600046EAE0762C4337430A986305E40AA0EB91
:100D700008000022FD0A44EA47540A3002D5002048
:100D80000146E9E7010510196941DDE90845001947
:100D90006941BDE8F04DA2E70EB540F23342029240
:100DA0000022CDE900221346FFF7A8FF03B000BDE3
:100DB000C1F30A52C1F3130140F2FF3341F4801131
:100DC0009A4202DA00200146704740F233439A42C9
:100DD000A2F2334202DC5242FFF7A6B9FFF7F3BE9C
:100DE000064C074D06E0E06840F0010394E8070078
:100DF00098471034AC42F6D3FFF77CF9DC6F00085B
:100E0000FC6F0008C0B24FF4F05100F099B9000037
:100E10002DE9F34F8BB04FF0000801F10C000C46A8
:100E20004FF0010B46460DF1080A0190626901215D
:100E300001989047051E2DD0252D2CD0216A88477A
:100E4000C0B16269012101989047216A8847002852
:100E5000F7D1411E62690198904700E0761CA169B4
:100E60000B988847216A88470028F7D1E1690B98D9
:100E70008847DBE7A1690B9888470746A84201D15C
:100E8000761CD3E7E1690B9888477F1C02D1B8F143
:100E9000000F6FD047E1002762693D46394601984F
:100EA00090472A2804D162690121019890470125C1
:100EB000DFF888926269012101989047A0F1300122
:100EC0000A290AD24F45E5DC07EB870100EB410711
:100ED000303FDFD445F01005ECE7E90601D46FF0B0
:100EE00000476C280AD04C2814D0682815D06A28EE
:100EF0000DD074281CD07A281AD01DE06269012117
:100F0000019890476C2802D045F0040514E045F0A4
:100F100002050DE045F020050AE062690121019813
:100F20009047682802D045F0080505E045F40065C3
:100F30006269012101989047C4E9015765283DD0B5
:100F400019DC58287AD00CDC452837D004DC252859
:100F500026D0412831D131E046282FD047282CD146
:100F60002CE05B2877D0612828D063287CD06428C7
:100F700023D15AE0D1E06F2848D008DC66281DD084
:100F800067281BD0692821D06E2816D127E0702849
:100F900045D0732868D0752847D078280DD14DE00A
:100FA000A1690B988847054625283FF469AFE16998
:100FB0000B9888476D1C3FF46AAFB4E023466A463D
:100FC0006FF001000B99FFF71FFA9FE045F040001A
:100FD0006060A80723464FF0000236D43EE0E807E1
:100FE0007FF447AF2068011D21600068290501D505
:100FF00006701BE7290701D5068017E7A90703D567
:10100000F117C0E9006111E706600FE745F0400005
:101010006060A80723464FF0080216D41EE040F691
:101020000E0125EA0100606016E045F040006060B6
:10103000A80723464FF00A0207D40FE045F040000E
:101040006060A80708D5234610226FF001000B99B5
:10105000AFF300805AE007E0234610226FF0010052
:101060000B99AFF3008051E04FF000094F464B461B
:10107000632802D05B2807D041E02079C00601D464
:101080000120A06001273AE06269012101989047A0
:101090005E2805D14FF001096269494601989047E1
:1010A000216939B900210A46534643F82120491CD9
:1010B0000829FADBB0B3216969B9C11700EBD16225
:1010C00053110AEB830122F01F02821A01200B68E0
:1010D000904003430B6062690121019890475D28AD
:1010E000E8D1B9F1000F09D00020514651F8202075
:1010F000D24341F82020401C0828F7DB02AB2246EF
:1011000000976FF001000B99FFF77AF800280CDACE
:10111000401C08D1BBF1000F05D04FF0FF300DB0DF
:10112000BDE8F08FFFE74046F9E7E90701D108F194
:10113000010806444FF0000B78E60000CCCCCC0C44
:101140007F2801D9002208E0064A02EB5002C007BE
:10115000127800D1120902F00F02012090400840DD
:1011600070470000406F000830B58C1810F8012B54
:1011700012F00F0301D110F8013B120906D110F84B
:10118000012B03E010F8015B01F8015B5B1EF9D154
:1011900001E001F8013B521EFBD1A142E6D3002041
:1011A00030BD00BFFEE7704701B5012269468920C6
:1011B00000F0CBFB08BD000038B504461B48844254
:1011C00006D9E1208DF80000E9208DF8010026E025
:1011D0001748844206D9D7208DF80000D8208DF812
:1011E00001001CE01348844206D9C1208DF800009C
:1011F000C5208DF8010012E00F48844206D9752001
:101200008DF8000081208DF8010008E00B48844231
:1012100005D96B208DF800006F208DF801000222A7
:101220006946982000F091FB38BD000000E9A43524
:1012300080F8A9328044E52D000B6B1B40FC54194B
:1012400010B500F055F818B100F052F8062801D199
:1012500000F04BFB00F042FB10BD38B50446200AFD
:101260008DF80000E0B28DF80100022269461046B8
:1012700000F06BFB38BD1020704708B502226946AC
:10128000122000F006F99DF801009DF8001040EAD8
:10129000012008BD38B5044603226946142000F039
:1012A000F8F89DF800004042C0F3470121739DF813
:1012B0000100802804DA9DF801008110617306E0C6
:1012C0009DF80100A0F58070C0F3870161739DF85F
:1012D00002004042C0F34701A17302480168216146
:1012E00038BD00004404002000487047000420027C
:1012F000014800787047000040040020F8B505461A
:101300000C461646002000906946204600F00DF875
:101310002078B04201DD0120F8BD227829469DF8F1
:10132000000000F092F80020F6E738B504460D46BC
:1013300002226946132000F0ACF840F2047000F07D
:10134000C9F80121B1EBE01F05D140F2027000F0B5
:10135000C1F8207002E09DF8000020709DF80100A7
:10136000287038BD2DE9F04100F0E5F800F0BDFA35
:1013700001201C49087000F04BFA1C2140F61110A6
:1013800000F002FB1C2140F6121000F0FDFA0120D3
:1013900000F020F9012000F0B4F90021084600F027
:1013A0000CF9012000F096F90F488479C579067A86
:1013B00032462146284600F063F945F24B7000F0B2
:1013C00052F9FF2000F032F9084F384600F0A0F93A
:1013D0000721162000F060FA002000F0D3F9BDE8E4
:1013E000F081000040040020586E000888F6D019F3
:1013F00038B5FFF742FF044600200090F4B12046C4
:10140000FFF72BFF04F00200022811D10C48FFF770
:1014100041FFFF2269460B48FFF770FF9DF800204F
:101420000849204600F0EEFA002000F0ABF905E094
:101430009DF800200349204600F0E4FA38BD000082
:10144000281600203C16002070472DE9F041074681
:101450000D461646FFF7F4FE002000F00FFC1E209C
:1014600000F01EFC384600F01BFC002000F018FCC9
:10147000002405E0002000F013FC2855601C84B215
:10148000B442F7DB012000F0F9FB00F027FABDE8D9
:10149000F0812DE9F04107460D461646FFF7D0FED4
:1014A000002000F0EBFB384600F0FAFB002000F0D3
:1014B000F7FB002405E0002000F0F2FB2855601C3B
:1014C00084B2B442F7DB012000F0D8FB00F006FA4A
:1014D000BDE8F08138B5044601226946204600F097
:1014E00003F89DF8000038BD2DE9F04104460E4692
:1014F0001746FFF7A5FE002000F0C0FB1D2000F0FE
:10150000CFFB200A00F0CCFBE0B200F0C9FB0020CA
:1015100000F0C6FB002505E0002000F0C1FB70557F
:10152000681C85B2BD42F7DB012000F0A7FB00F08C
:10153000D5F9BDE8F08110B50A2000F05DFA002071
:1015400000F076FB142000F057FA012000F070FB49
:10155000142000F051FA10BD10B5002000F0C2FCBC
:10156000012000F077FB10BD10B5002000F072FBE9
:10157000012000F0B7FC10BD2DE9F04107460C46F4
:101580001546204600F052F82146384600F0B0F8E3
:10159000284600F051F9002600BF012000F02CFA87
:1015A000FFF76BFE0646002EF7D03046FFF755FEDC
:1015B000304600F087FBBDE8F08138B505460C46A3
:1015C0008DF800508DF80140022269468F2000F00E
:1015D000BCF938BD01B5012269469D2000F0B5F97E
:1015E00008BD2DE9FC4107460C4615461E46380A43
:1015F0008DF80000F8B28DF80100200A8DF8020085
:10160000E0B28DF80300280A8DF80400E8B28DF8E6
:101610000500300A8DF80600F0B28DF807000822A8
:101620006946104600F091F9BDE8FC813EB50546DB
:1016300000200090019002903C24200A8DF80000C8
:101640008DF8014000208DF802008DF80350012034
:101650008DF8040000208DF80500062269468C20D4
:1016600000F073F93EBD10B50446210A4FF4E8605E
:1016700000F08AF9E1B240F2417000F085F910BD46
:101680007CB506460C4615460020009001908DF86A
:1016900000608DF801408DF8025001208DF80300A4
:1016A000042269468B2000F050F97CBDF8B5044651
:1016B0000D4616461F468DF800408DF801508DF8F6
:1016C00002608DF8037004226946952000F03DF910
:1016D000F8BD000001B59DF8000004490870012222
:1016E00069468A2000F031F908BD0000410400205D
:1016F00070B504460D462A462146002000F005F943
:1017000070BD01B501226946962000F01EF908BDA2
:101710002DE9FC4781460024FF2000900098FFF748
:1017200043FD4846FFF748FD012000F071F81C21F9
:1017300040F6111000F028F91C2140F6121000F0BC
:1017400023F94846FFF753F9074600220C4BFFF7F1
:10175000CEF80546FFF777F90446200E8DF8040011
:10176000200C8DF80500200A8DF80600E0B28DF8F7
:101770000700042201A9862000F0E7F8BDE8FC87F5
:101780008084EE3F38B504460520174908700120D3
:1017900000F03EF81C2140F6111000F0F5F81C2175
:1017A00040F6121000F0F0F800231A4640F2022131
:1017B0000846FFF716FFFF20FFF738FF4FF6FF70D0
:1017C000FFF74BFDFFF7C8FE200C8DF80000200A44
:1017D0008DF80100E0B28DF80200032269468220F4
:1017E00000F0B3F838BD00004004002001B500202F
:1017F00000F078FB002000F02DFA012269468420D9
:1018000000F0A3F800200149087008BD4004002042
:1018100001B501226946802000F097F89DF800008C
:1018200018B901200349087002E00220014908703C
:1018300008BD00004004002038B5044604201549C6
:101840000870FFF791FE0120FFF7E2FF1C2140F630
:10185000111000F099F81C2140F6121000F094F8D5
:1018600000231A4640F201210846FFF7BAFE4FF660
:10187000FF70FFF7F2FC200C8DF80000200A8DF8B5
:101880000100E0B28DF8020003226946832000F0D7
:101890005CF838BD4004002038B504460D460123ED
:1018A000002207210420FFF701FF162C01DD16247A
:1018B00004E014F1030F01DA6FF00204382140F65E
:1018C000E70000F061F8E0B28DF800008DF80150FB
:1018D000022269468E2000F038F838BD10B500BFEE
:1018E00000F07EF80028FBD110BD10B5002000F0FC
:1018F000C5F9C02000F0D4F9002000F0D1F9012092
:1019000000F0BCF9FFF7EAFF10BD2DE9F0410746F2
:101910000D461646FFF794FC002000F0AFF90E20AC
:1019200000F0BEF9384600F0BBF9002404E0285D61
:1019300000F0B6F9601C84B2B442F8DB012000F07C
:101940009DF9FFF7CBFFBDE8F0812DE9F041054699
:101950000E461746FFF774FC002000F08FF928466A
:1019600000F09EF9002404E0305D00F099F9601C5D
:1019700084B2BC42F8DB012000F080F9842D01D054
:10198000FFF7ACFFBDE8F08113B50446012201A9C1
:10199000204600F001F81CBD2DE9F04104460E463A
:1019A0001746FFF74DFC002000F068F90D2000F00D
:1019B00077F9200A00F074F9E0B200F071F900251F
:1019C00004E0705D00F06CF9681C85B2BD42F8DB84
:1019D000012000F053F9FFF781FFBDE8F08100001E
:1019E00010B500240221034800F0B8FC044620464C
:1019F00010BD0000000C014010B50446204600F068
:101A000009FB10BD2DE9F04104460F46904604F055
:101A10000200002836D02F2154A0FEF7C9FB28B1C0
:101A20002F2152A0FEF7C4FB401C00E04FA0064649
:101A30005C21FEF7BDFB002811D02F214BA0FEF743
:101A4000B7FB28B12F2149A0FEF7B2FB401C00E0F4
:101A500046A006465C21FEF7ABFB401C0BE02F21A5
:101A600042A0FEF7A5FB28B12F2140A0FEF7A0FB66
:101A7000401C00E03DA005466022294644A003F03A
:101A800051FA71E004F40070002836D02F2137A0FD
:101A9000FEF78EFB28B12F2134A0FEF789FB401CF6
:101AA00000E032A006465C21FEF782FB002811D040
:101AB0002F212EA0FEF77CFB28B12F212BA0FEF7B3
:101AC00077FB401C00E029A006465C21FEF770FB76
:101AD000401C0BE02F2125A0FEF76AFB28B12F2127
:101AE00022A0FEF765FB401C00E020A00546662210
:101AF000294634A003F016FA36E02F211BA0FEF78A
:101B000057FB28B12F2119A0FEF752FB401C00E023
:101B100016A006465C21FEF74BFB88B12F2113A0CF
:101B2000FEF746FB28B12F2110A0FEF741FB401C19
:101B300000E00EA006465C21FEF73AFB401C0BE0DD
:101B40002F210AA0FEF734FB28B12F2107A0FEF7B2
:101B50002FFB401C00E005A005466D22294628A069
:101B600003F0E0F900BFFEE7BDE8F0812E2E5C6DCA
:101B70006964646C65776172655C453230305C65C0
:101B8000627974655F63616C6C6261636B2E630084
:101B90005B2573203A2025645D2052656365697674
:101BA0006543616C6C6261636B3A20726563656961
:101BB00076654461746120537563636573730D0AC0
:101BC000000000005B2573203A2025645D204562FB
:101BD0007974655F506F72745F526563656976658D
:101BE00043616C6C6261636B3A204952515F525899
:101BF0005F54585F54494D454F55540D0A0000003D
:101C00005B2573203A2025645D2045627974655F09
:101C1000506F72745F5265636569766543616C6C81
:101C20006261636B3A20204572726F720D0A000088
:101C300010B50446012C05D101221146044800F0DC
:101C400095FB04E000220121014800F08FFB10BD4C
:101C5000000C014010B50446012C05D101220103FE
:101C6000054800F083FB05E000224FF48051024854
:101C700000F07CFB10BD0000000C014010B50446D4
:101C8000012C05D101221021044800F06FFB04E073
:101C900000221021014800F069FB10BD000801403E
:101CA00001B582B0002001904FF47A70012301AA9F
:101CB00002A90090024801F079FD9DF804000EBDD4
:101CC000BC04002070B5044604F00100002836D0A2
:101CD0002F2154A0FEF76CFA28B12F2151A0FEF756
:101CE00067FA401C00E04FA006465C21FEF760FA50
:101CF000002811D02F214BA0FEF75AFA28B12F212E
:101D000048A0FEF755FA401C00E046A006465C21BC
:101D1000FEF74EFA401C0BE02F2142A0FEF748FAD6
:101D200028B12F213FA0FEF743FA401C00E03DA060
:101D300005463422294644A003F0F4F871E004F487
:101D40000070002836D02F2136A0FEF731FA28B1D6
:101D50002F2134A0FEF72CFA401C00E031A00646EB
:101D60005C21FEF725FA002811D02F212DA0FEF7C7
:101D70001FFA28B12F212BA0FEF71AFA401C00E011
:101D800028A006465C21FEF713FA401C0BE02F2129
:101D900024A0FEF70DFA28B12F2122A0FEF708FAA1
:101DA000401C00E01FA005463A22294632A003F05D
:101DB000B9F836E02F211BA0FEF7FAF928B12F2140
:101DC00018A0FEF7F5F9401C00E016A006465C21BD
:101DD000FEF7EEF988B12F2112A0FEF7E9F928B13C
:101DE0002F2110A0FEF7E4F9401C00E00DA00646EC
:101DF0005C21FEF7DDF9401C0BE02F2109A0FEF766
:101E0000D7F928B12F2107A0FEF7D2F9401C00E036
:101E100004A005463F22294626A003F083F800BF10
:101E2000FEE770BD2E2E5C6D6964646C657761722F
:101E3000655C453230305C65627974655F63616C06
:101E40006C6261636B2E63005B2573203A2025640E
:101E50005D205472616E736D697443616C6C626174
:101E6000636B3A2073656E644461746120537563DB
:101E700063657373200D0A005B2573203A20256487
:101E80005D2045627974655F506F72745F54726152
:101E90006E736D697443616C6C6261636B3A204967
:101EA00052515F52585F54585F54494D454F5554F5
:101EB0000D0A00005B2573203A2025645D204562F1
:101EC0007974655F506F72745F5472616E736D697F
:101ED0007443616C6C6261636B3A204572726F721D
:101EE0000D0A000010B50446012C05D10122042181
:101EF000044800F03BFA04E000220421014800F00D
:101F000035FA10BD000C014072B600BFFEE7014675
:101F1000002291F82100022808D00420886300BF25
:101F2000002081F8200000BF012070470868006889
:101F300020F00E000B6818600868006820F00100AF
:101F40000B68186091F8403001209840CB6B5860C6
:101F5000012081F8210000BF002081F8200000BF8F
:101F60001046E2E770B50446002594F821000228E7
:101F700003D00420A063012548E02068006820F019
:101F80000E00216808602068006820F001002168C8
:101F900008601F492068884201D1012026E01C49C1
:101FA00014312068884201D110201FE018492831DF
:101FB0002068884201D1801518E015493C3120681D
:101FC000884201D1801411E01149503120688842C3
:101FD00002D14FF4803009E00D4964312068884215
:101FE00002D14FF4801001E04FF0807008490839A9
:101FF0004860012084F8210000BF002084F8200000
:1020000000BF606B10B12046616B8847284670BDE9
:102010000800024070B5044600F0AEF906462546B9
:10202000681C10B104480078054400BF00F0A4F912
:10203000801BA842FAD370BD140400202DE9F84794
:102040000346002294466EE14FF0010808FA02F4BC
:10205000D1F8008008EA0400A0427DD1DFF8DCA2BC
:10206000D1F80480A8EB0A09D0453AD014DCB8F1C5
:10207000030F50D009DCB8F1000F31D0B8F1010FD7
:102080001CD0B8F1020F49D120E0B8F1110F18D0DF
:10209000B8F1120F42D11EE0B9F5881F25D006DC39
:1020A000B9F5803F20D0B9F5801F37D11AE0B9F5D6
:1020B000001F18D0B9F5041F30D117E0D1F80CC0BB
:1020C0002DE0D1F80C8008F1040C28E0D1F80C8048
:1020D00008F1080C23E0D1F80C8008F10C0C1EE08C
:1020E00000BF00BF00BF00BF00BF00BFD1F8088025
:1020F000B8F1000F02D14FF0040C0BE0D1F80880CA
:10210000B8F1010F03D14FF0080C1C6102E04FF051
:10211000080C5C6103E04FF0000C00E000BF00BF62
:10212000FF2801D8984601E003F104084646FF283D
:1021300002D84FEA820803E0A2F108084FEA8808B3
:102140004746D6F800804FF00F0909FA07F928EA48
:1021500009080CFA07F900E088E048EA0908C6F81F
:102160000080D1F8048008F08058B8F1805F7DD1FC
:1021700000BFDFF8CC81D8F8188048F00108DFF8FC
:10218000C091C9F81880C846D8F8188008F001082E
:10219000CDF8008000BF00BF4FEAB9384FEA92097E
:1021A00058F829504FEA82784FEA18794FF00F0813
:1021B00008FA09F825EA0805DFF88881434502D1C5
:1021C0004FF0000816E0DFF88081434502D14FF060
:1021D00001080FE0DFF87481434502D14FF0020897
:1021E00008E0DFF86C81434502D14FF0030801E0BD
:1021F0004FF004084FEA82794FEA197908FA09F892
:1022000048EA0505DFF84C814FEA920948F8295061
:10221000D1F8048008F48018B8F5801F0AD1DFF8DF
:102220003881D8F8008048EA0008DFF82C91C9F816
:10223000008009E0DFF82081D8F8008028EA000853
:10224000DFF81491C9F80080D1F8048008F4001870
:10225000B8F5001F10D1DFF8008108F10408D8F8A4
:10226000008048EA0008DFF8F09000E05AE009F149
:102270000409C9F800800DE0DFF8DC8008F10408EB
:10228000D8F8008028EA0008DFF8CC9009F10409AA
:10229000C9F80080D1F8048008F40038B8F5003F90
:1022A0000ED1DFF8B480A8F10408D8F8008048EA1D
:1022B0000008DFF8A490A9F10409C9F800800DE036
:1022C000DFF89480A8F10408D8F8008028EA000814
:1022D000DFF88490A9F10409C9F80080D1F80480DE
:1022E00008F48038B8F5803F0ED1DFF86C80A8F193
:1022F0000808D8F8008048EA0008DFF85C90A9F1E7
:102300000809C9F800800DE0DFF84C80A8F1080842
:10231000D8F8008028EA0008DFF83C90A9F1080905
:10232000C9F80080521CD1F8008028FA02F8B8F1F0
:10233000000F7FF489AEBDE8F8870000000011109F
:102340000010024000080140000C01400010014054
:10235000001401400800014008040140024693684F
:102360000B400BB1012000E0002070470AB1016171
:1023700001E00B04036170470148006870470000EA
:102380000C04002070B504460CB9012070BD94F80F
:102390003D0028B9002084F83C00204600F046FBB0
:1023A000242084F83D002068006820F001002168A6
:1023B00008602068006840F40040216808602068D8
:1023C000006820F400402168086000F023FE054604
:1023D0005C496068884206D85B48854201D201208A
:1023E00007E0002005E05948854201D2012000E0C5
:1023F0000020012800D1C9E75548B5FBF0F6206858
:10240000406820F03F003043216848604D496068D3
:10241000884201D8701C07E04FF4967070434FF467
:102420007A71B0FBF1F0401C2168096A21F03F018C
:1024300008432168086243496068884214D8681ECE
:1024400061684900B0FBF1F0401CC0F30B000428A8
:1024500001D204203DE0681E61684900B0FBF1F044
:10246000401CC0F30B0034E0A06838B9681E6168F6
:1024700001EB4101B0FBF1F0401C0AE0681E61680D
:1024800001EBC10202EB0111B0FBF1F0401C40F482
:102490008040C0F30B0008B901201AE0A06848B9D9
:1024A000681E616801EB4101B0FBF1F0401CC0F314
:1024B0000B000CE0681E616801EBC10202EB011128
:1024C000B0FBF1F0401CC0F30B0040F4804040F43E
:1024D00000402168C9694CF6FF72914308432168A6
:1024E000C861D4E9070108432168096821F0C001E7
:1024F000084321680860D4E903100843216889680B
:1025000048F2FF329143084321688860D4E905010D
:1025100008432168C96821F0FF0108432168C860A9
:102520002068006840F001002168086000202064F5
:10253000202084F83D000020206384F83E0000BF86
:1025400024E70000A086010080841E0000093D00F1
:1025500040420F002DE9FE4F04460F469046994633
:10256000DDE90CAB0E9E00200290FFF705FF05464B
:1025700094F83D00202872D119230122CE4920462B
:10258000009501F0F8FE10B10220BDE8FE8F00BFFB
:1025900094F83C00012801D10220F6E7012084F8DC
:1025A0003C0000BF2068006800F0010028B92068E6
:1025B000006840F00100216808602068006820F48D
:1025C000006021680860222084F83D00402084F8E3
:1025D0003E0000202064C4F824A0A4F82AB0608D36
:1025E0002085B648E0624B46424639462046CDE952
:1025F000006501F06DFD08B10120C6E7208D88B9A6
:1026000000BF002001902068406901902068806927
:10261000019000BF00BF2068006840F4007021688E
:1026200008604BE0208D01281AD12068006820F452
:1026300080602168086072B600BF002001902068A9
:102640004069019020688069019000BF00BF206848
:10265000006840F400702168086062B62EE029E14D
:10266000208D022819D12068006840F4006021689C
:10267000086072B600BF0020019020684069019098
:1026800020688069019000BF00BF2068006820F4C6
:1026900080602168086062B610E02068006840F43D
:1026A00080602168086000BF0020019020684069B8
:1026B000019020688069019000BF00BFEBE0208D91
:1026C00003287DD8208D012815D12A463146204681
:1026D00001F02DFF08B1012057E720680069616A09
:1026E0000870606A401C6062208D401E2085608DED
:1026F000401E6085CFE0208D02282CD13346002279
:102700006F492046009501F036FE08B101203CE7F4
:1027100072B62068006840F4007021680860206884
:102720000069616A0870606A401C6062208D401E0A
:102730002085608D401E608562B620680069616AF0
:102740000870606A401C6062208D401E2085608D8C
:10275000401E60859FE0334600225949204600957F
:1027600001F009FE08B101200FE72068006820F49D
:1027700080602168086072B620680069616A08702C
:10278000606A401C6062208D401E2085608D401E66
:1027900060854C4800681921B0FBF1F04FF47A7164
:1027A000B0FBF1F0C0EBC00000EB8000029000BF76
:1027B0000298401E02900298A8B90020206300E011
:1027C00039E0202084F83D00002084F83E00206C91
:1027D00040F02000206462B600BF002084F83C0076
:1027E00000BF0120D1E620684069C0F380000028C6
:1027F000DED02068006840F400702168086020681E
:102800000069616A0870606A401C6062208D401E29
:102810002085608D401E608562B620680069616A0F
:102820000870606A401C6062208D401E2085608DAB
:10283000401E60852FE02A463146204601F077FE93
:1028400008B10120A1E620680069616A0870606A29
:10285000401C6062208D401E2085608D401E60857A
:1028600020684069C0F38000A8B1208D032805D1FD
:102870002068006820F48060216808602068006992
:10288000616A0870606A401C6062208D401E20856D
:10289000608D401E6085208D00287FF410AF2020C1
:1028A00084F83D00002084F83E0000BF84F83C001E
:1028B00000BF6AE6022068E6020010000000FFFF89
:1028C00004000100180400202DE9FC5F04460F46B7
:1028D00090469946DDE90CAB0E9EFFF74DFD05468F
:1028E00094F83D0020287DD1192301224D4920462E
:1028F000009501F040FD10B10220BDE8FC9F00BF33
:1029000094F83C00012801D10220F6E7012084F868
:102910003C0000BF2068006800F0010028B9206872
:10292000006840F00100216808602068006820F419
:10293000006021680860212084F83D00402084F870
:102940003E0000202064C4F824A0A4F82AB0608DC2
:1029500020853548E0624B46424639462046CDE95F
:10296000006501F065FC08B10120C6E731E02A46A8
:102970003146204601F020FE50B1206C042805D1DC
:102980002068006840F40070216808600120B4E706
:10299000606A007821680861606A401C6062208D6E
:1029A000401E2085608D401E608520684069C0F310
:1029B000800070B1208D60B1606A00782168086184
:1029C000606A401C6062208D401E2085608D401E24
:1029D0006085208D0028CAD12A463146204601F064
:1029E00097FC00E01CE050B1206C042805D1206861
:1029F000006840F400702168086001207DE72068CD
:102A0000006840F4007021680860202084F83D00D0
:102A1000002084F83E0000BF84F83C0000BF6CE753
:102A200002206AE7020010000000FFFF10B586B028
:102A300004460020029003900490059015492068F8
:102A4000884225D100BF1448806940F0080012492F
:102A500088610846806900F00800019000BF00BF4F
:102A6000C0200290122003900320059002A90B4879
:102A7000FFF7E4FA00BF0848C06940F400100649B7
:102A8000C8610846C06900F40010019000BF00BF93
:102A900006B010BD0054004000100240000C014080
:102AA00003480068034909780844014908607047F1
:102AB0000C0400201404002010B50848006840F001
:102AC000100006490860032000F0A8F80F2000F06D
:102AD00007F800F02BF8002010BD00000020024095
:102AE00070B504460E4800784FF47A71B1FBF0F0EF
:102AF0000C490968B1FBF0F5284600F07BFF08B1EE
:102B0000012070BD102C07D200222146501E00F07B
:102B100047F80548046001E00120F2E70020F0E7F3
:102B200014040020180400201004002008B500BF81
:102B30001148806940F001000F49886108468069AA
:102B400000F00100009000BF00BF00BF0846C06950
:102B500040F08050C8610846C06900F08050009085
:102B600000BF00BF00BF0549486820F0E06040F0AA
:102B70000070486000BF08BD001002400000014026
:102B800001460846002809DB00F01F0301229A4095
:102B900043099B0003F1E023C3F8002100BF704705
:102BA0002DE9F05F80460D461646002702F0DEF95B
:102BB000074639462A46334601F00700C0F1070AA6
:102BC000BAF1040F02D94FF0040A01E0C0F1070A7C
:102BD000D14600F1040ABAF1070F02D24FF0000A01
:102BE00001E0A0F1030AD4464FF0010A0AFA09FAFB
:102BF000AAF1010A0AEA020A0AFA0CFA4FF0010BDA
:102C00000BFA0CFBABF1010B0BEA030B4AEA0B04CA
:102C10002146404602F0B2F9BDE8F09F00BF00F047
:102C20000702064B19684FF6FF031940044B0B438C
:102C300043EA0221014B196000BF70470CED00E030
:102C40000000FA05012001490862704700000E42A9
:102C50002DE9F04706464FF0000800250027002424
:102C6000A146012E31D0022E56D0102E5FD132480F
:102C70004468006800F0807008B33048C4F38341B2
:102C8000475C04F4803078B12B484068C0F3404082
:102C90002B4911F8008004F4803040B12948B0FB82
:102CA000F8F000FB07F502E0274807FB00F5224893
:102CB000406800F48000B0F5800F01D1A94603E020
:102CC00068000321B0FBF1F932E01B48046A04F408
:102CD0004070B0F5807F05D104F0020010B14FF4D0
:102CE000004918E004F44070B0F5007F07D11248A5
:102CF000406A00F0020010B149F640490BE004F4CC
:102D00004070B0F5407F06D10B48006800F40030F9
:102D100008B14FF224490BE000F08CF906494968EC
:102D2000C1F38131491C4900B0FBF1F900E000BF5B
:102D300000BF4846BDE8F087001002402C6E000836
:102D40003C6E000800127A0000093D00F8B5044608
:102D500000260025207800F0010000286BD0002715
:102D60004348C06900F0805070B900BF4048C06956
:102D700040F080503E49C8610846C06900F080506C
:102D8000009000BF00BF01273A48006800F480703F
:102D9000B0B93848006840F4807036490860FFF7E1
:102DA000EBFA064606E0FFF7E7FA801B642801D934
:102DB0000320F8BD2F48006800F480700028F2D08E
:102DC0002B48006A00F440752DB3A08800F44070D1
:102DD000A84220D02648006A20F4407501202649E8
:102DE0000860002008602248056205F0010090B1EB
:102DF000FFF7C2FA064608E0FFF7BEFA801B41F271
:102E00008831884201D90320D3E71948006A00F0CD
:102E100002000028F0D01648006A20F44070616873
:102E2000084313490862012F04D10846C06920F005
:102E30008050C86100BF207800F00200022807D14E
:102E40000B48406820F44040A168084308494860A6
:102E5000207800F01000102807D10548406820F4C1
:102E60008000E1680843024948600020A1E70000B3
:102E700000100240007000404004424270B5044619
:102E80000D460CB9012070BD5A48006800F00700DB
:102E9000A8420ED25748006820F007002843554941
:102EA00008600846006800F00700A84201D0012031
:102EB000E9E7207800F0020002281DD1207800F018
:102EC0000400042805D14C48406840F4E0604A49B9
:102ED0004860207800F00800082805D1464840687E
:102EE00040F46050444948604348406820F0F00096
:102EF000A168084340494860207800F0010078B399
:102F00006068012806D13C48006800F4003090B9A0
:102F10000120B8E76068022806D13748006800F051
:102F2000007040B90120AEE73348006800F00200AD
:102F300008B90120A7E73048406820F00300616825
:102F400008432D494860FFF717FA064609E0FFF7E6
:102F500013FA801B41F28831884202D9032092E79C
:102F600007E02548406800F00C006168B0EB810F75
:102F7000EDD12048006800F00700A8420ED91D4896
:102F8000006820F0070028431A49086008460068D6
:102F900000F00700A84201D0012074E7207800F07B
:102FA0000400042807D11448406820F4E060E16878
:102FB000084311494860207800F00800082808D12B
:102FC0000D48406820F46050216940EAC1000A4978
:102FD000486000F03FF808494968C1F30311074A07
:102FE000515CC8400649086006480068FFF778FD54
:102FF000002048E700200240001002403E6E00081A
:1030000018040020100400200148006870470000E8
:103010001804002000B5FFF7F7FF04494968C1F321
:103020000221034A515CC84000BD0000001002406C
:103030004E6E000800B5FFF7E7FF04494968C1F389
:10304000C221034A515CC84000BD0000001002408C
:103050004E6E000870B500210022002400230020DD
:10306000134D696801F00C05F5B1042D02D0082D4F
:1030700019D101E00F4819E00F4DC1F38346AB5D54
:1030800001F4803555B10A4D6D68C5F340450B4ECE
:10309000725D084D5D43B5FBF2F402E0084D03FBA1
:1030A00005F4204602E000BF024800BF00BF70BD2B
:1030B0000010024000127A001A6E00082A6E000802
:1030C00000093D00F8B504460CB90120F8BD207890
:1030D00000F00100002878D0F848406800F00C00AB
:1030E00004280CD0F548406800F00C00082811D1E5
:1030F000F248406800F48030B0F5803F0AD1EF48D4
:10310000006800F4003000285FD0606800285CD1BF
:103110000120DBE700BF6068B0F5803F06D1E748DB
:10312000006840F48030E549086028E0606858B9DC
:10313000E248006820F48030E049086008460068F2
:1031400020F4802008601AE06068B0F5A02F0BD151
:10315000DA48006840F48020D849086008460068D2
:1031600040F4803008600AE0D448006820F48030E1
:10317000D24908600846006820F48020086000BF3B
:10318000606888B1FFF7F8F8054606E0FFF7F4F845
:10319000401B642801D9032098E7C848006800F460
:1031A00000300028F2D010E0FFF7E6F8054606E010
:1031B000FFF7E2F8401B642801D9032086E7BF48E7
:1031C000006800F400300028F2D1207800F00200FE
:1031D000022857D1B948406800F00C0050B1B748F8
:1031E000406800F00C00082818D1B448406800F48A
:1031F000803098B9B148006800F0020020B1206921
:10320000012801D0012061E7AC48006820F0F800F7
:10321000616940EAC100A949086033E02069E8B16A
:103220000120A7490860FFF7A7F8054606E0FFF769
:10323000A3F8401B022801D9032047E79F480068F4
:1032400000F002000028F2D09C48006820F0F8004E
:10325000616940EAC1009949086013E0002098497B
:103260000860FFF789F8054606E0FFF785F8401B80
:10327000022801D9032029E79048006800F00200E5
:103280000028F2D1207800F0080008282DD1A0698C
:10329000B8B101208B490860FFF76EF8054606E0DB
:1032A000FFF76AF8401B022801D903200EE7834884
:1032B000406A00F002000028F2D0012001F018FB63
:1032C00013E000207F490860FFF756F8054606E046
:1032D000FFF752F8401B022801D90320F6E6774891
:1032E000406A00F002000028F2D1207800F00400CB
:1032F000042873D100277148C06900F0805070B96C
:1033000000BF6E48C06940F080506C49C8610846F3
:10331000C06900F08050009000BF00BF01276A48DC
:10332000006800F48070B0B96748006840F48070AD
:1033300065490860FFF720F8054606E0FFF71CF82E
:10334000401B642801D90320C0E65F48006800F4F0
:1033500080700028F2D000BFE068012806D15748ED
:10336000006A40F001005549086227E0E06858B95A
:103370005248006A20F00100504908620846006A7D
:1033800020F00400086219E0E06805280BD14B48E2
:10339000006A40F00400494908620846006A40F0AB
:1033A000010008620AE04548006A20F00100434934
:1033B00008620846006A20F00400086200BFE06866
:1033C000A0B1FEF7D9FF054609E0FEF7D5FF401B87
:1033D00041F28831884202D9032077E622E037485B
:1033E000006A00F002000028EFD012E0FEF7C4FFF0
:1033F000054608E0FEF7C0FF401B41F288318842D5
:1034000001D9032062E62D48006A00F0020000287E
:10341000F0D1012F05D12948C06920F080502749FB
:10342000C86100BFE069C8B32448406800F00C00E0
:10343000082860D0E069022848D1002020490866A9
:10344000FEF79AFF054606E0FEF796FF401B0228AE
:1034500001D903203AE61948006800F000700028FE
:10346000F2D1206AB0F5803F07D11448406820F4BB
:103470000030A168084311494860D4E908010843B5
:103480000E49496821F4741108430C494860012031
:103490000B490866FEF770FF054607E03DE0FEF7C2
:1034A0006BFF401B022801D903200FE60348006888
:1034B00000F000700028F2D02FE000000010024061
:1034C0000000424280044242007000400020144943
:1034D0000866FEF751FF054606E0FEF74DFF401B6C
:1034E000022801D90320F1E50E48006800F00070C1
:1034F0000028F2D111E0E069012800D1E6E5094891
:10350000466806F48031206A814204D106F47011C5
:10351000606A814201D00120D8E50020D6E5000094
:10352000000042420010024070B5044600250CB96C
:10353000012070BD607C20B900202074204600F07E
:1035400053F802206074204600F06EF818B1042091
:1035500060740120EDE7204601F0DEF918B1042087
:1035600060740120E5E72068406820F007002168CA
:103570004860A06828B11B48006820F00100194984
:1035800008601848001F006820F46070A1680843B4
:103590001449091F08606068401C08B1656809E0AB
:1035A0000120FFF755FB05461DB90420607401207A
:1035B000BFE76D1EC5F3034021688860A8B221688B
:1035C000C860204601F0C5F918B1042060740120DC
:1035D000AFE70021E17301216173A17301206074E1
:1035E0000020A6E7306C004038B504460B4920683F
:1035F000884212D1FFF726FB00BF0948C06940F09E
:1036000000600749C8610846C06900F0006000908A
:1036100000BF00BF01200349086038BD00280040FA
:10362000001002403C04424270B5044600250CB92B
:10363000012070BD2068406820F0080021684860C3
:10364000FEF79AFE054607E0FEF796FE401BB0F532
:103650007A7F01D90320ECE72068406800F0080079
:103660000028F1D00020E4E710B504460CB9012091
:1036700010BD606A38B96068B0F5827F00D105E09E
:103680000021E16102E00021216161610021A1626C
:1036900094F8510028B9002084F85000204600F02A
:1036A00043F8022084F851002068006820F04000B0
:1036B00021680860A08800F48270218901F4044127
:1036C0000843A18901F400610843217C01F0020153
:1036D0000843217D01F001010843218B01F40071B1
:1036E0000843217F01F0380108432021095D01F0E2
:1036F00080010843218D01F40051084321680860CE
:103700000421A06901EA1040216848602068C0696E
:1037100020F400602168C86100206065012084F801
:1037200051000020A4E7000010B586B00446002038
:1037300002900390049005901949206888422DD189
:1037400000BF1848806940F48050164988610846D7
:10375000806900F48050019000BF00BF00BF0846A0
:10376000806940F0040088610846806900F0040028
:10377000019000BF00BFA020029002200390032010
:10378000059002A90848FEF759FC4020029000204D
:103790000390049002A90448FEF750FC06B010BD47
:1037A0000030014000100240000801402DE9FE4FAA
:1037B00004460F4690461D460C9E01200190FEF7E0
:1037C000DBFD814694F851B060680290AA46BBF1D7
:1037D000010F0BD00298B0F5827F04D1A06810B918
:1037E000BBF1040F02D00220BDE8FE8F1FB1B8F17B
:1037F000000F00D00DB90120F6E700BF94F850008B
:10380000012801D10220EFE7012084F8500000BF19
:1038100094F85100042802D0052084F851000020BB
:103820006065C4F83880E587A5872763E586A586A7
:10383000206460642068006800F04000402805D0E3
:103840002068006840F0400021680860E068B0F53A
:10385000006F52D1606810B1BAF1010F09D1206B2D
:1038600000882168C860206B801C2063E08E401EA9
:10387000E0863BE02068806800F00200022810D15A
:10388000E08E70B1019801280BD1206B008821686F
:10389000C860206B801C2063E08E401EE086002004
:1038A00001902068806800F0010068B1E08F58B195
:1038B0002068C068A16B0880A06B801CA063E08FAB
:1038C000401EE08701200190FEF756FDA0EB0900A5
:1038D000B0420BD3701C48B1012084F8510000BFE6
:1038E000002084F8500000BF03207DE7E08E002810
:1038F000C0D1E08F0028BDD152E0606810B1BAF1AC
:10390000010F09D1206B007821680873206B401CDF
:103910002063E08E401EE0863CE02068806800F076
:103920000200022810D1E08E70B1019801280BD15D
:10393000206B007821680873206B401C2063E08EA8
:10394000401EE086002001902068806800F00100A1
:1039500068B1E08F58B12068C068A16B0870A06B97
:10396000401CA063E08F401EE08701200190FEF71D
:1039700003FDA0EB0900B04201D3701C00B94EB9A1
:10398000012084F8510000BF002084F8500000BFDF
:10399000032029E7E08E0028BFD1E08F0028BCD1AA
:1039A0004A463146204600F0F1FF40B120206065D4
:1039B00000BF002084F8500000BF012014E7A06879
:1039C00050B900BF002000902068C06800902068B7
:1039D0008068009000BF00BF012084F8510000BF44
:1039E000002084F8500000BF606D08B10120FBE6A4
:1039F0000020F9E670B504462546681EB0F1807FC8
:103A000001D301200FE0681E4FF0E02148610F2133
:103A10004FF0FF3001F0B2FA00204FF0E021886152
:103A200007200861002070BDF8B504460E46174611
:103A300094F8420020282ED106B10FB90120F8BD1C
:103A400001202063002060633A463146204601F0A1
:103A5000C1F90546EDB9206B012819D100BF00203E
:103A6000009020680068009020684068009000BFC7
:103A700000BF00BF00BF21680C3151E8001F41F0BA
:103A8000100021680C3141E80002002AF3D100E067
:103A900001252846D3E70220D1E7000070B504468F
:103AA0000D460C492068884202D1284602F03AFBB4
:103AB0000949206888420CD10848058006E008487A
:103AC000028808490848FFF7AFFF0646002EF6D1E6
:103AD00000BF70BD004400400048004024040020A6
:103AE00022040020EC090020A405002070470000FB
:103AF0002DE9F84F0446206805682068C6682068EC
:103B000047694FF00009CA4605F00F09B9F1000FE7
:103B10000AD105F0200038B106F0200020B120467F
:103B200001F05CF8BDE8F88FB9F1000F7BD007F029
:103B3000010018B906F49070002874D005F0010057
:103B400030B106F4807018B1606C40F00100606420
:103B500005F0040030B107F0010018B1606C40F0CE
:103B60000200606405F0020030B107F0010018B1F6
:103B7000606C40F00400606405F0080048B106F095
:103B8000200010B907F0010018B1606C40F0080087
:103B90006064606C002845D005F0200028B106F074
:103BA000200010B1204601F019F820684069C0F3E8
:103BB000801A606C00F0080010B9BAF1000F2CD028
:103BC000204600F0C5FF2068406900F0400000B3C7
:103BD00000BF00BF2168143151E8001F21F04000F0
:103BE0002168143141E80002002AF3D100BFE06BE4
:103BF00050B17748E16B4863E06BFEF7B3F988B1E9
:103C0000E06B416B88470DE02046FFF76FFF09E04E
:103C100009E02046FFF76AFF04E02046FFF766FF51
:103C2000002060647EE7206B012877D105F010004A
:103C3000002873D006F010000028FAD000BF002042
:103C4000009020680068009020684068009000BFE5
:103C500000BF2068406900F0400000285FD0E06BA2
:103C6000006840681FFA80F8B8F1000F55D0A08DA9
:103C7000404552DDA4F82E80E06B8069202843D0B7
:103C800000BF00BF21680C3151E8001F21F4807093
:103C900021680C3141E80002002AF3D100BF00BFC7
:103CA00000BF2168143151E8001F21F00100216894
:103CB000143141E80002002AF3D100BF00BF00BF69
:103CC0002168143151E8001F21F0400021681431AF
:103CD00041E80002002AF3D100BF202084F842000E
:103CE0000020206300BF00BF21680C3151E8001F95
:103CF00021F0100021680C3141E80002002AF3D1C4
:103D000000BFE06BFEF703F902206063A08DE28D37
:103D1000801A81B22046FFF7C1FE03E742E0A08D82
:103D2000E18D401A1FFA80F8E08DD0B3B8F1000F92
:103D300037D000BF00BF21680C3151E8001F21F4CB
:103D4000907021680C3141E80002002AF3D100BFD5
:103D500000BF00BF2168143151E8001F21F00100AD
:103D60002168143141E80002002AF3D100BF20206D
:103D700084F842000020206300BF00BF21680C319E
:103D800051E8001F21F0100021680C3141E80002C9
:103D9000002AF3D100BF0220606341462046FFF7AE
:103DA0007DFEBFE605F0800030B106F0800018B15E
:103DB000204601F02FF8B5E605F0400030B106F0DE
:103DC000400018B1204600F0F9FEABE600BFA9E6BE
:103DD0003D4B000810B504460CB9012010BDA06988
:103DE00000B100E000BF94F8410028B9002084F839
:103DF0004000204600F02AF8242084F84100206882
:103E0000C06820F400502168C860204600F064FFBC
:103E10002068006920F490402168086120684069AA
:103E200020F02A00216848612068C06840F40050F2
:103E30002168C86000206064202084F8410084F874
:103E400042000020606300BFC8E7000010B586B0E4
:103E50000446002002900390049005905549206884
:103E600088422FD100BF5448806940F480405249B5
:103E700088610846806900F48040019000BF00BF5F
:103E800000BF0846806940F00400886108468069E8
:103E900000F00400019000BF00BF4815029002200E
:103EA00003900320059002A94448FEF7C7F84FF499
:103EB0008060029000200390049002A93F48FEF722
:103EC000BDF875E03E492068884236D100BF3A48C7
:103ED000C06940F400303849C8610846C06900F440
:103EE0000030019000BF00BF00BF0846806940F06D
:103EF000040088610846806900F00400019000BF5A
:103F000000BF04200290022003900320059002A924
:103F10002A48FEF793F808200290002003900490AE
:103F200002A92648FEF78AF8002203212620FEF780
:103F300037FE2620FEF724FE3AE022492068884218
:103F400036D100BF1C48C06940F480201A49C861BE
:103F50000846C06900F48020019000BF00BF00BF88
:103F60000846806940F0080088610846806900F0D2
:103F70000800019000BF00BF0815029002200390C6
:103F80000320059002A91048FEF758F84FF400608E
:103F9000029000200390049002A90B48FEF74EF80F
:103FA000002203212720FEF7FBFD2720FEF7E8FD76
:103FB00006B010BD0038014000100240000801406A
:103FC0000044004000480040000C014070472DE9CB
:103FD000F84F04460E46174699464FF0000A94F8EB
:103FE0004100202850D106B117B90120BDE8F88F53
:103FF00000206064212084F84100FEF7BDF982466C
:10400000A784E784A068B0F5805F04D1206910B967
:104010000025B04602E035464FF000081EE053464A
:10402000002280212046CDF8009000F023FF20B12F
:10403000202084F841000320D8E745B9B8F80000F3
:10404000C0F308002168486008F1020803E02878FE
:10405000216848606D1CE08C401EE084E08C0028E4
:10406000DDD15346002240212046CDF8009000F0DB
:1040700001FF20B1202084F841000320B6E7202072
:1040800084F841000020B1E70220AFE7704700BF8D
:10409000FEE7014608684069C0F38020B0B16FF4C4
:1040A00080600A68506100200863202081F83D008C
:1040B000002081F83E00086C40F00400086400BF56
:1040C000002081F83C0000BF012070470020FCE781
:1040D0002DE9F84304460F4615469946DDE9088662
:1040E0002068006840F480602168086020680068EB
:1040F00040F4807021680860434600224FF00111AF
:104100002046009600F037F960B12068006800F49E
:104110008070B0F5807F02D14FF4007020640320DE
:10412000BDE8F88307F0FE00216808613346424687
:104130003E49204600F07EF908B10120F0E700BFBB
:1041400000200090206840690090206880690090FD
:1041500000BF00BF32464146204600F02DFA50B164
:10416000206C042805D12068006840F400702168A4
:1041700008600120D4E7B9F1010F03D1E8B221684A
:10418000086117E0C5F307202168086132464146FF
:10419000204600F011FA50B1206C042805D12068A7
:1041A000006840F40070216808600120B8E7E8B2B8
:1041B0002168086132464146204600F0FDF950B1C1
:1041C000206C042805D12068006840F40070216844
:1041D00008600120A4E72068006840F4807021682E
:1041E0000860434600224FF001112046009600F07F
:1041F000C2F858B12068006800F48070B0F5807F84
:1042000002D14FF400702064032089E7F8B240F037
:10421000010021680861334642460449204600F007
:1042200009F908B101207BE7002079E702000100CD
:104230002DE9F8430446884615469946DDE90867A6
:104240002068006840F480702168086033460022CE
:104250004FF001112046009700F08DF860B1206802
:10426000006800F48070B0F5807F02D14FF40070D8
:1042700020640320BDE8F88308F0FE00216808618F
:104280003B4632462149204600F0D4F808B10120CF
:10429000F0E700BF0020009020684069009020688F
:1042A0008069009000BF00BF3A463146204600F0CA
:1042B00083F950B1206C042805D12068006840F4CF
:1042C0000070216808600120D4E7B9F1010F03D123
:1042D000E8B22168086117E0C5F30720216808618A
:1042E0003A463146204600F067F950B1206C042868
:1042F00005D12068006840F4007021680860012042
:10430000B8E7E8B2216808610020B3E702000100C5
:1043100070B504460D46164625E02046FFF7B9FE67
:1043200008B1012070BD681CE8B1FEF725F8801BBC
:10433000A84200D8BDB920684069C0F3800090B998
:1043400000202063202084F83D00002084F83E00F7
:10435000206C40F02000206400BF002084F83C0066
:1043600000BF0120DEE720684069C0F3800000281C
:10437000D3D00020D6E72DE9F04104460D4617467C
:104380001E46DDF8188038E0701CA8B3FDF7F4FF76
:10439000A0EB0800B04200D876BBC5F30740012867
:1043A0000AD120684069A9B20840A9B2884201D167
:1043B00001200BE0002009E020688069A9B20840D4
:1043C000A9B2884201D1012000E00020B84214D1F6
:1043D00000202063202084F83D00002084F83E0067
:1043E000206C40F02000206400BF002084F83C00D6
:1043F00000BF0120BDE8F081FFE7C5F307400128B9
:104400000AD120684069A9B20840A9B2884201D106
:1044100001200BE0002009E020688069A9B2084073
:10442000A9B2884201D1012000E00020B842ABD0FF
:104430000020DFE72DE9F04104460D4616461F46F1
:1044400058E020684069C0F38020E8B12068006827
:1044500040F40070216808606FF480602168486152
:1044600000202063202084F83D00002084F83E00D6
:10447000206C40F00400206400BF002084F83C0061
:1044800000BF0120BDE8F081701C90B3FDF774FF00
:10449000C01BB04200D866BBC5F3074001280AD153
:1044A00020684069A9B20840A9B2884201D1012020
:1044B0000BE0002009E020688069A9B20840A9B299
:1044C000884201D1012000E0002090B90020206343
:1044D000202084F83D00002084F83E00206C40F04D
:1044E0002000206400BF002084F83C0000BF0120B1
:1044F000C8E7FFE7C5F3074001280AD120684069F3
:10450000A9B20840A9B2884201D101200BE00020E5
:1045100009E020688069A9B20840A9B2884201D1A7
:10452000012000E0002000288BD00020AAE770B511
:1045300004460D46164637E020684069C0F3001077
:10454000A0B16FF010002168486100202063202096
:1045500084F83D00002084F83E00206C206400BFF9
:10456000002084F83C0000BF012070BDFDF704FF6F
:10457000801BA84200D8BDB920684069C0F38010F4
:1045800090B900202063202084F83D00002084F8AA
:104590003E00206C40F02000206400BF002084F822
:1045A0003C0000BF0120E0E720684069C0F38010B4
:1045B0000028C1D00020D8E770B504460D46164645
:1045C00025E02046FFF765FD08B1012070BD681C9D
:1045D000E8B1FDF7D1FE801BA84200D8BDB9206824
:1045E0004069C0F3C01090B900202063202084F8F7
:1045F0003D00002084F83E00206C40F02000206444
:1046000000BF002084F83C0000BF0120DEE72068E6
:104610004069C0F3C0100028D3D00020D6E70000C6
:1046200000B585B00020019002900390049000BF77
:104630003348806940F0100031498861084680693C
:1046400000F01000009000BF00BF00BF0846806966
:1046500040F0200088610846806900F0200000904A
:1046600000BF00BF00BF0846806940F004008861B9
:104670000846806900F00400009000BF00BF00BF42
:104680000846806940F0080088610846806900F0AB
:104690000800009000BF00BF012210211948FDF75B
:1046A00065FE012221211848FDF760FE002243F239
:1046B0000C011548FDF75AFE1020019001200290D0
:1046C000002003900320049001A90E48FDF7B6FCDA
:1046D00043F22D000190012002900020039003205E
:1046E000049001A90848FDF7A9FC022001900020D0
:1046F0000290039001A90448FDF7A0FC05B000BD9D
:104700000010024000080140000C014010B50B48A9
:104710000B4908600B484860002109488160C1606E
:104720004FF480410161002141618161C1610162F9
:10473000FDF728FE08B1FDF7E7FB10BD005400406F
:1047400054040020A086010010B5084808490860FC
:104750004FF0FF3048604FF4807105488160FEF7EC
:10476000E3FE08B1FDF7D0FB10BD000000280040BB
:10477000A804002010B50E480E4908604FF482705E
:10478000486000210B488160C160016141614FF4C4
:10479000007181611821C161002101624162816261
:1047A0000A21C162FEF760FF08B1FDF7ADFB10BD45
:1047B00000300140BC04002010B50B480B490860D4
:1047C0004FF4E1304860002108488160C160016118
:1047D0000C21416100218161C161FFF7FBFA08B141
:1047E000FDF792FB10BD00000038014014050020C9
:1047F00010B50B480B4908604FF416504860002173
:1048000008488160C16001610C2141610021816122
:10481000C161FFF7DFFA08B1FDF776FB10BD0000BC
:10482000004400405C05002010B50B480B490860AF
:104830004FF416504860002108488160C160016152
:104840000C21416100218161C161FFF7C3FA08B108
:10485000FDF75AFB10BD000000480040A4050020F1
:1048600000BFFEE72DE9FC5F8246DAE90021104631
:10487000FCF746F983460022194BDAE9006130461D
:10488000FCF735F80446FCF7BFF88046FCF79EF8C5
:10489000CAE900010022124BDAE900613046FBF759
:1048A000B4FF804689465846FCF7E6F842464B4638
:1048B000CDE90001FBF7A3FF0446FCF721F983468D
:1048C00008495846FBF7BCFE0646FCF7D5F80446F7
:1048D000DAE900633246FBF7F1FEBDE8FC9F000019
:1048E000000059400000704200BFFEE77047000022
:1048F00008B508490968C9084FF47A72B1FBF2F1AA
:104900004143009100BF00BF00994A1E0092002958
:10491000F9D108BD1804002070B504460025FDF744
:104920002BFD054607E0FDF727FD401BB0F57A7F1C
:1049300001D9032070BD2068406800F020000028E5
:10494000F1D02068406840F01000216848600020E5
:10495000F0E770B5044600252068406820F010009C
:1049600021684860FDF708FD054607E0FDF704FDF6
:10497000401BB0F57A7F01D9032070BD20684068E4
:1049800000F020000028F1D00020F6E7F8B504463A
:104990000E4615463346012202212046009500F0BE
:1049A00017F828B1606D40F0200060650320F8BD65
:1049B0003346002280212046009500F009F828B1F6
:1049C000606D40F0200060650320F0E70020EEE716
:1049D0002DE9F84F04460D4690461E46DDF8289016
:1049E000FDF7CAFCA0EB0900371AFDF7C5FC8246AB
:1049F0002C480068C0F3CB307843009045E0701C31
:104A0000002842D0FDF7B8FCA0EB0A00B84200D263
:104A1000A7BB2068406820F0E0002168486060681B
:104A2000B0F5827F0DD1A068B0F5004F03D0A0682B
:104A3000B0F5806F05D12068006820F04000216843
:104A40000860A06AB0F5005F0DD100BF2068006863
:104A500020F40050216808602068006840F400508D
:104A60002168086000BF012084F8510000BF0020C9
:104A700084F8500000BF0320BDE8F88FFFE70098DE
:104A800000B900270098401E0090206880682840E8
:104A9000A84201D1012000E000204045AFD1002014
:104AA000EAE7000018040020704710B5FDF7F8FF92
:104AB00010BD00B593B0282109A8FBF75EFB1421B7
:104AC00004A8FBF75AFB002000900190029003908D
:104AD000052009904FF480300A9000200B900120AF
:104AE0000C900D9002201090C10311914FF4E01131
:104AF000129109A8FEF7E6FA08B1FDF705FA0F20B2
:104B0000049002200590002006904FF480600790EA
:104B100000200890022104A8FEF7B0F908B1FDF7C3
:104B2000F3F901200090000201906846FEF70EF9AB
:104B300008B1FDF7E9F913B000BD704770B505463F
:104B40006C6A0020E085E0842046FEF7CFFF70BD50
:104B500000BF00BF02680C3252E8002F22F49071AF
:104B600002680C3242E80013002BF3D100BF00BFF3
:104B700000BF0268143252E8002F22F001010268DF
:104B8000143242E80013002BF3D100BF016B01295E
:104B90000ED100BF00BF02680C3252E8002F22F095
:104BA000100102680C3242E80013002BF3D100BF61
:104BB000202180F8421000210163704710B504469F
:104BC0002068C06820F040002168C860202084F878
:104BD00041002046FFF75AFA002010BDF8B5044600
:104BE00094F84200222875D1A068B0F5805F0CD1FE
:104BF000206950B90025A66A20684068C0F3080003
:104C00003080A06A801CA06215E0A56A0026A0681A
:104C1000B0F5805F03D0A06828B9206918B9206872
:104C20004068287004E02068406800F07F00287029
:104C3000A06A401CA062E08D401E80B2E085002882
:104C400046D12068C06820F020002168C860206834
:104C5000C06820F480702168C8602068406920F036
:104C6000010021684861202084F842000020606330
:104C7000206B012826D10020206300BF00BF2168DF
:104C80000C3151E8001F21F0100021680C3141E87F
:104C90000002002AF3D100BF2068006800F0100075
:104CA00010280AD100BF0020009020680068009002
:104CB00020684068009000BF00BFA18D2046FEF72D
:104CC000EDFE02E02046FFF781F90020F8BD01E08B
:104CD0000020FBE70220F9E770B504462168096966
:104CE00021F44051E2681143226811612269A168F0
:104CF0001143626941EA02052168C96841F20C6208
:104D0000914329432268D1602168496921F44071A7
:104D1000A2691143226851612D4A2168914202D152
:104D2000FEF788F901E0FEF775F900EBC00101EB31
:104D3000001162689200B1FBF2F100EBC00202EBDD
:104D4000001263689B00B2FBF3F26423B2FBF3F240
:104D500002EBC20303EB0212A1EB8201322202EB4F
:104D600001116422B1FBF2F101F0F00100EBC0028D
:104D700002EB001263689B00B2FBF3F26423B2FB08
:104D8000F3F201EB021200EBC00101EB00116368CA
:104D90009B00B1FBF3F100EBC00303EB001366686B
:104DA000B600B3FBF6F36426B3FBF6F303EBC306DE
:104DB00006EB0313A1EB8301322303EB0111642300
:104DC000B1FBF3F101F00F0111442268916070BD55
:104DD0000038014010B5034699629A85DA850020B3
:104DE0005864222083F84200186928B11868C06806
:104DF00040F480701C68E0601868406940F0010071
:104E00001C6860611868C06840F020001C68E060A1
:104E1000002010BD014691F84100212828D1886862
:104E2000B0F5805F0BD1086948B90A6A1088C0F3F1
:104E300008000B685860086A801C086205E00B6A6D
:104E4000581C086218780B685860C88C401E80B2E5
:104E5000C88458B90868C06820F080000B68D86022
:104E60000868C06840F040000B68D86000207047B8
:104E70000220FCE72DE9F84304460D461746984604
:104E8000089E31E0701C70B3FDF776FAA0EB0800C5
:104E9000B04200D816B90320BDE8F8832068C06886
:104EA00000F00400F8B1802D1ED0402D1CD02068E9
:104EB0000068C0F3C000B0B100BF002000902068BF
:104EC0000068009020684068009000BF00BF204646
:104ED000FFF73EFE0820606400BF002084F8400019
:104EE00000BF0120D8E7FFE7206800682840A842FB
:104EF00001D1012000E00020B842C3D00020CBE760
:104F000010B50248FEF7F4FD10BD00005C0500205E
:104F100010B50248FEF7ECFD10BD0000A40500200E
:104F200000BFFEE70FB4054B10B503A9044A029871
:104F300000F068F910BC5DF814FB0000ED5E00089D
:104F4000480400200FB4084B10B504A902AA039826
:104F500000F058F9044602A9002000F0D6FC2046D3
:104F600010BC5DF814FB00000B59000802480068F3
:104F7000C0F30220704700000CED00E010B50028DF
:104F800004DB0A07130E054A135406E00A07140E41
:104F9000034A00F00F031B1FD45410BD00E400E0CF
:104FA00018ED00E030B528B1144C031F0020216833
:104FB0000A4605E0084630BD9A4203D810465268BA
:104FC000002AF9D1002800D041680BD00468A3EB77
:104FD0000005A54204D11B681C440346046002E09E
:104FE000436000E023603AB11C68D51AA54203D1A2
:104FF00015682C441C6052685A6030BD4C04002077
:105000002DE9F04782460F4C10480D4E0E4F001B05
:105010004FF0000820F007054FF00109002211466B
:10502000504601F07DF9002802D1306810B100200F
:10503000BDE8F0873C60C4E90058C6F80090EDE791
:1050400050040020441700204C040020401B002086
:1050500002E008C8121F08C1002AFAD17047704741
:10506000002001E001C1121F002AFBD1704700009F
:105070002DE9FF5F82B00021DDE90430020DDDF88B
:1050800040B0034318D044F61050A2F2FF3242431E
:105090001514119801281FD0A5EB0B00401C5FEAE6
:1050A000000A4FF000064E4FDFF83891B0465046E8
:1050B00015D5CAF1000413E0119801244AA3012870
:1050C00001D16FEA0B010298119AC0E90031C0E9E1
:1050D000024206B0BDE8F09FCBF10000DFE70446D6
:1050E0000021404A491842EB0450CDE9001012E07B
:1050F000E00707D032463B4640464946FBF785FB72
:105100008046894632463B4610461946FBF77DFBF2
:1051100006460F466410002CEAD1DDE90401DDE902
:105120000023BAF1000F06DAFBF76FFB42464B464D
:10513000FBF76BFB05E0FBF7DAFB42464B46FBF760
:10514000D6FB04460E460022284BFBF7C1FC03D8D1
:105150004FF0FF30014607E00022254B2046314644
:10516000FBF7ACFAFBF724FE102409E0002C0ADB65
:105170000A220023FBF7F6FC039B30321A55641E0B
:1051800050EA0102F2D1641C039AC4F111031444E1
:10519000119A012A03D0012208430DD10AE00843E5
:1051A00004D000204FF0110B119072E7A3EB0B0518
:1051B0006D1E0DE05B4504DD4FF0000205F10105B9
:1051C00004E003DA4FF00002A5F10105002AECD05B
:1051D00002981199C0E90231C0E9004579E7000061
:1051E000000014400000F03F300000000000F043D9
:1051F0000000E03F30380A2801D20120704700202B
:10520000704700002DE9FF4F95B09A468846064644
:105210000025EEE1252877D100242746F94A01210F
:10522000039400E0044316F8013F203B01FA03F029
:105230001042F7D130782A2811D06FF02F03307840
:10524000A0F13002092A16D8039A44F0020402EBB6
:10525000820203EB42021044761C0390EFE758F8F9
:10526000042B0392002A03DA504244F400540390C2
:1052700044F00204761C30782E2816D116F8010F5F
:1052800044F004042A280DD06FF02F023078A0F1EA
:105290003003092B09D807EB870302EB4303C71838
:1052A000761CF3E758F8047B761C30786C280FD016
:1052B00006DC4C2817D068280DD06A2814D104E0E9
:1052C000742810D07A280FD10DE044F400140AE0BD
:1052D00044F4801401E044F440147278824202D114
:1052E00004F58014761C761C307866280BD013DC0D
:1052F000582877D009DC002875D04528F6D04628F4
:10530000F4D047281AD193E118E0632835D06428F7
:1053100079D0652812D18BE1702873D008DC67281A
:10532000F1D069286FD06E280DD06F2806D1ACE07F
:1053300073282CD0752874D0782853D052461799EA
:1053400090476D1C54E1C4F30250022809D0032891
:105350000DD0D8F8001004280DD00D6008F1040815
:1053600046E1D8F80010EA17C1E90052F6E7D8F88C
:1053700000100D80F2E70D70F0E718F8041B8DF8AF
:10538000001000208DF80100EB46012003E058F8E2
:1053900004BB4FF0FF3061074FF0000102D40DE075
:1053A00009F101018946B9420FDA8145F8DB1BF8A2
:1053B00009100029F4D108E009F101018946814270
:1053C000FADB1BF809100029F6D103985346A0EB2D
:1053D000090721463846179A00F080FA284400EB66
:1053E000090507E044E008E10DE01BF8010B524617
:1053F00017999047B9F10109F7D25346214638462B
:10540000179AF2E039E00A21C4F302524FF0000B80
:105410000091022A06D058F8040BC117032A09D0BC
:105420000AE023E008F1070020F00702F2E8020199
:10543000904605E000B2C117042A01D140B2C1175D
:10544000002906DA0A460021404261EB02012D22C2
:1054500002E0220504D52B228DF80420012203E06E
:10546000E20701D02022F7E7914657E00A2100E049
:1054700010214FF0000B00910BE010214FF0000BBA
:1054800044F004040827009103E008204FF0000BCB
:105490000090C4F30252022A05D058F8040B0021F0
:1054A000032A08D008E008F1070020F00702F2E81C
:1054B0000201904603E080B2042A00D1C0B24FF04E
:1054C000000922072AD53278702A07D0DDF800C0FB
:1054D0008CF0100C5CEA0B0C05D00EE040228DF82D
:1054E0000420012208E050EA010306D030238DF8A1
:1054F00004308DF8052002229146009B83F00803BA
:1055000053EA0B030AD150EA010201D1620705D523
:1055100030228DF804204FF001097F1E3278582A7E
:1055200004D039A20C920CAA02920BE03BA2F9E73C
:105530005B46009AFBF716FB0C9B9B5C029A521E83
:105540000292137050EA0102F2D1029804A9081ADB
:1055500000F1200B600702D524F4803400E001271D
:105560005F4502DDA7EB0B0000E0002000EB0B0124
:10557000009003984944401A0390E00306D4534630
:105580002146179A039800F0A9F90544002706E080
:1055900001A85246C05D179990476D1C7F1C4F456E
:1055A000F6DBE0030CD553462146179A039800F02A
:1055B00095F9054404E030205246179990476D1C38
:1055C0000099481E00900029F5DC08E00298029935
:1055D00052460078491C0291179990476D1CBBF107
:1055E0000001ABF1010BF1DC5BE100F065F9054472
:1055F000761C307800287FF40DAE19B02846BDE83F
:10560000F08F00000928010030313233343536374D
:1056100038396162636465660000000030313233FE
:10562000343536373839414243444546000000009E
:10563000600700D4062708F1070020F00700F0E813
:105640000223804603F0004C5FEA0C0001D097A0D3
:1056500009E0200501D596A005E0E00701D095A05E
:1056600001E0AFF24C001390307823F0004365283E
:105670000CD006DC452809D046281DD047287FD10C
:105680003BE0662818D067287AD136E00021112F38
:1056900001DB112000E0781CCDE9000104A90CA871
:1056A000FFF7E6FCDDE90D010C9A4FF0000B07F166
:1056B0000109109200914EE04FF000400097CDE9B3
:1056C000011004A90CA8FFF7D3FCDDE90D020C9B27
:1056D0000F994FF0000B91461093009211B9791C6D
:1056E00000EB0109B7EB090003D4C0F1FF3B07F160
:1056F0000109A9EB0700019042E0012F00DA012720
:105700000021112F01DD112000E03846CDE9000114
:1057100004A90CA8FFF7ACFCDDE90D010C9A00917F
:105720004FF0000BB946109221070FD4009A4A455A
:1057300003DA914601E0A9F10109B9F1010F05DD94
:10574000109AA9F10101515C3029F4D0B84202DA73
:1057500010F1040F03DA0121CDE9011010E0002857
:1057600003DC8344A9EB000102E0411C494500DD54
:105770008946A0EB0B00401C01904FF000400290C6
:10578000200705D40198484502DB4FF0FF30019017
:1057900000208DF84B0002980DF14B07B0F1004F3F
:1057A00025D002200C902B200D90029800280CDAB6
:1057B000404202902D200D9007E00A210298FBF74D
:1057C000BBF93031029007F8011D0C99481E0C906E
:1057D0000029F2DC02980028EFD1791E0D9808709C
:1057E000307800F0200040F0450007F8020D11A8C5
:1057F000C01BC01D02901398007800B1012000EB7F
:105800000901019801EBE071029801440398401AE4
:10581000401E0390E00306D453462146179A03988E
:1058200000F05CF805441398007818B152461799B7
:1058300090476D1CE00323D553462146179A0398E1
:1058400000F04CF805441BE0BBF1000F07DB0098AB
:10585000584504DD1098179910F80B0001E01799CE
:1058600030205246904701980BF1010B401E05F184
:105870000105019004D12E205246179990476D1CC6
:10588000B9F10001A9F10109DEDC05E017F8010B0F
:105890005246179990476D1C0299481E02900029A4
:1058A000F4DC53462146179A03989EE62D0000002B
:1058B0002B000000200000002DE9F04104460025E7
:1058C0001E461746880404D405E039462020B04718
:1058D0006D1C641EF9D52846BDE8F0812DE9F04124
:1058E000044600251E469046C80301D5302700E037
:1058F0002027880404D505E041463846B0476D1C92
:10590000641EF9D52846BDE8F0810A68531C0B6077
:105910001070704770B505460C46002614B10DB1E5
:10592000A54201D1002070BDAE6826B9AC606460AC
:105930000020206007E0706828B12146706801F0FF
:1059400057FAA86844600120EDE72DE9F0470546C5
:105950000E4614461F46DDF820904FF00008C24660
:105960001DB116B10CB1A54202D10020BDE8F087EF
:10597000B9F1000F07D0304600F020FA8046E06809
:1059800040F4007A0CE03946304600F0FBF98046DE
:10599000B8F1000F01D10020E8E7E06820F4007AB8
:1059A000A08900F4007020B9206A10B1206A7968DB
:1059B0008847C4F82080C4F80CA021462846FFF789
:1059C000A9FFD3E710B500F0A9FA00F01DFB00F025
:1059D000BFFB10BD2DE9F0478046894600F0ECFC86
:1059E00000F092FA00F060F90746584A58A138468C
:1059F00000F00EF955481A38D0E90043224657A165
:105A0000384600F0E7F851481A38D0E904432246F6
:105A100053A1384600F0DEF84C4A123A51A13846FC
:105A200000F0F6F8494A921E50A1384600F0F0F80E
:105A300046491A39086BFAF7DAFF044622460B4644
:105A40004CA1384600F0C6F8384600F091F90646F9
:105A50002F214AA0FAF7ACFB28B12F2147A0FAF773
:105A6000A7FB401C00E045A005465C21FAF7A0FB1F
:105A7000002811D02F2141A0FAF79AFB28B12F213D
:105A80003EA0FAF795FB401C00E03CA005465C21D7
:105A9000FAF78EFB401C0BE02F2138A0FAF788FBA9
:105AA00028B12F2135A0FAF783FB401C00E033A07A
:105AB000044633465622214639A0FFF733FA3846CA
:105AC00000F018F92F212DA0FAF772FB28B12F2131
:105AD0002AA0FAF76DFB401C00E028A005465C21D7
