:020000040800F2
:10000000C019002005010008AD2F0008552900087F
:10001000392F0008D91200083D3300080000000005
:100020000000000000000000000000001B3000087D
:10003000DB12000800000000AF2F00081D30000890
:100040001F0100081F0100081F0100081F01000810
:100050001F0100081F0100081F0100081F01000800
:100060001F0100081F0100081F0100081F010008F0
:100070001F0100081F0100081F0100081F010008E0
:100080001F0100081F0100081F0100081F010008D0
:100090001F0100081F0100081F0100081F010008C0
:1000A0001F0100081F0100081F0100081F010008B0
:1000B0001F0100081F0100081F0100081F010008A0
:1000C0001F0100081F0100081F0100081F01000890
:1000D0001F0100081F010008253300083133000804
:1000E0001F0100081F0100081F010008DFF810D0E1
:1000F00000F02EFF0048004709470008AFF30080DA
:10010000C01900200648804706480047FEE7FEE782
:10011000FEE7FEE7FEE7FEE7FEE7FEE7FEE7FEE7B7
:10012000A1300008ED000008202A04DB203A21FA63
:1001300002F00021704721FA02F3D040C2F1200200
:10014000914008431946704740EA01039B0703D0DA
:1001500009E008C9121F08C0042AFAD203E011F806
:10016000013B00F8013B521EF9D27047D2B201E0C8
:1001700000F8012B491EFBD270470022F6E710B5AC
:1001800013460A4604461946FFF7F0FF204610BD05
:1001900030B505462A460B4612F8010B13F8014B01
:1001A00008B1A042F8D01CB1002802D06D1CF1E7C4
:1001B000284630BD421C10F8011B0029FBD1801AD3
:1001C0007047034611F8012B00F8012B002AF9D1E2
:1001D000184670470FB400B58DB010A909900B9068
:1001E00000914FF0FF300A9000200C9005480690D7
:1001F000054807906A4609A80F9900F0C3FD0DB0A5
:100200005DF814FBA10D0008BF0D00082DE9FF5F8C
:100210001D464FF0FF3BD5E9014691465F464FF042
:100220000008A9697F1C01988847296A8246884787
:100230000028F6D1BAF1FF3F0CD024F4C064002EA0
:1002400019DD600614D5BAF12B0F09D0BAF12D0FC4
:100250000ED103E0584604B0BDE8F09F44F480643A
:10026000A9697F1C01988847761E8246002E02DD10
:10027000BAF1300F03D0B9F1000F26D032E0A969EE
:10028000761E44F400747F1C019888478246002E35
:1002900005DDBAF1780F06D0BAF1580F03D0B9F1E5
:1002A000000F10D01EE0B9F1000F02D0B9F1100F0D
:1002B00018D1A969761E24F400747F1C0198884720
:1002C0008246102002E0082000E00A20814609E072
:1002D00008FB0908A969761E44F400747F1C019884
:1002E00088478246002E05DD4946504600F036FD1F
:1002F0000028EDDAE96901988847A00502D46FF07B
:100300000100A8E7E00725D1600613D5600502D5F6
:10031000C8F1000000E0404629680A1D2A6009680B
:10032000220501D5087015E0220701D5088011E0EB
:1003300008600FE02868011D29600068210502D5CA
:1003400080F8008006E0210702D5A0F8008001E0D7
:10035000C0F8008038467EE72DE9FF5FD2E901A7AB
:100360004FF00008916999461446DDF838B04646CA
:1003700001988847054659EA0B0005D009E0A169B4
:10038000761C019888470546216A28468847002838
:10039000F5D1681C03D05FEACA7005D015E04FF0B4
:1003A000FF3004B0BDE8F09F2068011D2160D0F847
:1003B00000800AE05FEACA7001D108F8015BA16918
:1003C000761C7F1E019888470546002F1ADD681CA1
:1003D00018D0B9F1000F0DD0E81705EBD06042112D
:1003E00020F01F0059F822102A1A012090400142E3
:1003F000E0D107E0BBF1000FDCD1216A2846884735
:100400000028D7D0E16901988847BBF1000F07D1D8
:10041000002E05DD5FEACA7002D1002188F80010C5
:10042000A068B84203DDBBF1000F03D017B16FF035
:100430000100B6E73046B4E72DE9FF4F087883B0F6
:100440009946FF2805D0491C2D2804D000240020FF
:1004500008E000200BE00124F9E700EB800003EB4B
:100460004000491C0B78FF2BF7D104B14042002318
:100470000293147819461D462D2C01D02B2C04D143
:10048000521C2D2C13D000240294AA461478FF2C61
:100490000FD00A25A3FB057801FB05814FF0000C66
:1004A00003FB0C11521CE3194AEB0101EEE7012496
:1004B000EAE7814453EA010002D019F5C87F06DA61
:1004C00003980021C0E9001107B0BDE8F08F0025B6
:1004D000AE4E2F46DFF8B882184600F015FDCDE984
:1004E0000001B9F1000002DAC9F1000400E004469D
:1004F0000023A74A1AEB030B42EB045A12E0E00771
:1005000007D02A4633463846414600F02AFA0746C5
:1005100088462A4633461046194600F022FA054618
:100520000E466410002CEAD1DDE90001B9F1000F9C
:100530005A46534606DA00F086FA3A46434600F039
:1005400082FA05E000F00DFA3A46434600F009FA57
:10055000029A0AB181F00041039AC2E90001B3E7AF
:100560002DE9FF4F1F468DB0D7E901464FF0FF3808
:100570002E2045464FF000090B90B9696D1C0E986E
:100580008847396A824688470028F6D1BAF1FF3F8A
:100590000AD024F4D064002E11DDBAF12B0F08D05C
:1005A000BAF12D0F0BD102E0404611B08DE744F4B3
:1005B0008064B9696D1C0E9888478246761E69462C
:1005C000600501D52D2000E02B208DF8000001F101
:1005D000010B0DF1200809E0B9696D1C0E988847E0
:1005E00082460F9844F40074761E0560002E02DDEA
:1005F000BAF1300FF0D00B998A453ED144F0800417
:1006000006E00F99681CA9F1010944F40074086020
:10061000B9696D1C761E0E98884782463028F0D046
:100620002BE00B998A4505D1200603D444F08004C1
:10063000761E18E0504602F0CFFF08B30DF113010B
:10064000761E44F400748B4508D2AAF130000BF8F2
:10065000010B200607D5A9F1010003E0200602D412
:1006600009F101008146A00502D50F99681C0860B8
:10067000B9696D1C0E9888478246002ED1DC53E084
:10068000002E51DDBAF1650F02D0BAF1450F4BD102
:10069000A00549D5B9696D1C24F44074761E0E98E6
:1006A00088478246002E0CDD2B2804D0BAF12D0F8E
:1006B00007D144F48074B9696D1C0E98884782464E
:1006C000761EE00501D52D2100E02B2108F8011B45
:1006D000CDF82C8021E00DF12901761E44F4007440
:1006E00088450CD2AAF1300010F0FF0088F8000015
:1006F00002D10B99884509D908F1010806E0E00507
:1007000001D5244801E042F20F708146B9696D1CA1
:100710000E98884782460F980560002E04DD5046EB
:1007200002F05AFF0028D6D1F9690E988847FF20B9
:100730008BF8000088F800000020069007904B46D8
:100740006A4608A906A8FFF777FEA00502D46FF055
:1007500001002AE714F0240F0AD0E00714D1DDE9E4
:1007600006123868031D3B600068C0E900120BE008
:10077000DDE9060100F06EFA0146E00704D13868B1
:10078000021D3A600068016028460EE70000144030
:100790000000F03FF1D8FFFF30B480EA010202F020
:1007A000004530F0004221F0004013D090B1C30D5D
:1007B000D40DC2F31601C0F31600E41A41F400018F
:1007C00040F400027D34914201D3641C00E04900F2
:1007D000002C02DA30BC002070474FF400000023E8
:1007E000914201D3891A034340084FEA4101F7D1EE
:1007F00051B1914202D14FF0004105E002D24FF0D9
:10080000010101E06FF0010103EBC450284430BC4A
:1008100000F0E6BA2DE9FE4F804681EA0300C00FE2
:100820000C46009021F0004123F00045B8EB020097
:10083000A94105D24046214690461C460B46024639
:1008400023F00040104347D0270DC7F30A00C3F33D
:100850000A510290401A019040286BDAC3F313004A
:1008600040F4801B0098924620B10023D2EB030A8B
:1008700063EB0B0B01985946C0F14002504600F063
:100880004CFA06460D4650465946019A00F054FA75
:1008900010EB08006141002487EA115284EAE773F3
:1008A0001A4340D0009A62B3019A012A4FEA0752D4
:1008B00015DC001B61EB02014FF0004202EA075217
:1008C000CDE90042001C41F5801132462B4600F074
:1008D000CDFA03B0BDE8F08F40462146F9E7001B92
:1008E00061EB0201001C41F5801300185B412018E8
:1008F000A2F5001747EB030140EAD570B6196D4128
:1009000011E06D084FEA360645EAC0754FEA075216
:10091000001B61EB0201001C41F5801149084FEA00
:1009200030000019514132462B4603B0BDE8F04F6C
:1009300000F08DBA0098012240000023D0EB0202A3
:1009400063EBE073009821464FEAE074B8EB0000D7
:1009500061EB0401E9E783F000435BE781F00041CC
:1009600058E72DE9FE4F81EA030404F0004421F02A
:10097000004100944FF0000B23F0004350EA0104C3
:100980005ED052EA03045BD0C3F30A54C1F30A55A4
:100990002C44A4F2F3340194A0FB0254C1F31301DC
:1009A00041F48011C3F3130343F4801301FB0244A9
:1009B00000FB034E840A970A44EA815447EA8357AE
:1009C000A4FB076802958D0A05FB07854FEA932C67
:1009D00004FB0C542705029D4FEA065847EA1637D8
:1009E000B5EB08056EEB070C870E920E47EA8117F0
:1009F00042EA8312A7FB0201B6EB0B0164EB000491
:100A00002B0D43EA0C335E1844EB1C50DA4651467A
:100A1000E7FB0201C5F313044FEA0B3343EA145317
:100A20004FEA0432019C43EA0603A4F10C04029449
:100A3000009CCDE900B400F019FA03B0BDE8F08FD6
:100A400000200146F9E72DE9F04D81EA030404F0A6
:100A5000004B21F0004514464FF0000A23F00041FE
:100A600050EA050220D054EA01021DD0C5F30A570E
:100A70000246C5F31303C1F31300C1F30A5640F451
:100A8000801543F48013A7EB0608101BD64608F226
:100A9000FD3873EB050002D308F1010801E092185C
:100AA0005B41B8F1000F03DA00200146BDE8F08D8C
:100AB00000204FF48011064684460EE0171B73EBAE
:100AC000050705D3121B63EB050306434CEA010C33
:100AD00049084FEA300092185B4150EA0107EDD116
:100AE00052EA030012D082EA040083EA05010843B7
:100AF00005D0101BAB4106D20122002306E00022E4
:100B00004FF0004302E06FF0010253101AEB0600B1
:100B10004CEB085110EB0A0041EB0B01BDE8F04D26
:100B200000F095B970B521F0004303430CD0C1F338
:100B30000A550024D5EB040564EB0403D617AD1A5F
:100B4000B34102DB0020014670BD201841EB025189
:100B500070BD0EB5C10F80EAE0700844CA070021DD
:100B600040F233438DE80E000A460B4600F07EF952
:100B700003B000BD0EB540F2334102910021CDE932
:100B800000110A460B4600F071F903B000BD70B5C4
:100B9000C1F30A5201F000450024C1F3130140F2F1
:100BA000FF3341F480119A4201DA002070BD40F217
:100BB00033439A42A2F2334203DC5242FFF7B4FAC3
:100BC00000E090402C43F1D0404270BD00F0004264
:100BD00030F000400AD0C10D01F56071C0F316007D
:100BE00042EA0151C2084007114370470020014604
:100BF0007047000030B5041E71F1000404DB4FF0B3
:100C00000044404264EB0101141E73F1000405DB53
:100C10001C464FF00043524263EB04038B4208BF73
:100C2000824230BD30B5041E71F1000404DB4FF088
:100C30000044404264EB0101141E73F1000405DB23
:100C40001C464FF00043524263EB0403994208BF35
:100C5000904230BD01F0004330B421F0004150EA31
:100C6000010206D00A0DA2F56072C1F31301002A39
:100C700002DC30BC00207047440F44EAC104C100CC
:100C8000E01830BC00EBC25000F0AAB830B50B46FB
:100C9000014600202022012409E021FA02F59D42AC
:100CA00005D303FA02F5491B04FA02F52844151E80
:100CB000A2F10102F1DC30BD2DE9F05F0546002014
:100CC00092469B4688460646814640241BE02846BD
:100CD000414647462246FFF727FA53465A46C01A6E
:100CE000914110D311461846224600F016F82D1AED
:100CF00067EB01084F4622460120002100F00DF865
:100D000017EB00094E41201EA4F10104DFDC484628
:100D100031462A464346BDE8F09F202A04DB203AAC
:100D200000FA02F1002070479140C2F1200320FA3E
:100D300003F3194390407047202A06DBCB17203A73
:100D400041FA02F043EAE07306E041FA02F3D040D0
:100D5000C2F1200291400843194670473A2800D258
:100D6000303820F02002412A01D3A2F13700884216
:100D700001D34FF0FF3070470268114413780160CF
:100D800018467047D160044951610449116200213D
:100D90001161114600F0F4B8790D0008750F0008D4
:100DA000426842B1016811F8013B23B1521EC0E90B
:100DB0000012184670470121C160881E70474268C2
:100DC0005AB1C368016843B983688B4205D0491E94
:100DD000521CC0E90012002070474FF0FF307047EE
:100DE0000029A8BF7047401C490008BF20F001003F
:100DF000704710B4B0FA80FC00FA0CF050EA01041D
:100E000004BF10BC704749B1CCF1200421FA04F4AE
:100E100011FA0CF118BF012121430843A3EB0C0187
:100E2000CB1D4FEA00614FEA102042BF002010BCEA
:100E3000704700EBC35010440029A4BF10BC70479A
:100E4000401C490008BF20F0010010BC704710B5DD
:100E5000141E73F1000408DA401C41F100019218DD
:100E60005B411A4301D120F0010010BD2DE9F04D86
:100E700092469B4611B1B1FA81F202E0B0FA80F2DB
:100E800020329046FFF749FF04460F4640EA0A0029
:100E900041EA0B0153465A46084313D0114653EA20
:100EA000010019D0C8F140025046FFF73DF9054650
:100EB0000E46504659464246FFF72FFF084305D0DD
:100EC000012004E020463946BDE8F08D00200543AE
:100ED00046EAE0762C4337430A986305E40AA0EB20
:100EE00008000022FD0A44EA47540A3002D50020D7
:100EF0000146E9E7010510196941DDE908450019D6
:100F00006941BDE8F04DA2E70EB540F233420292CE
:100F10000022CDE900221346FFF7A8FF03B000BD71
:100F2000C1F30A52C1F3130140F2FF3341F48011BF
:100F30009A4202DA00200146704740F233439A4257
:100F4000A2F2334202DC5242FFF7EEB8FFF7E5BEF1
:100F5000064C074D06E0E06840F0010394E8070006
:100F600098471034AC42F6D3FFF7C4F8004E00089F
:100F7000204E0008C0B24FF4F05100F099B90000C3
:100F80002DE9F34F8BB04FF0000801F10C000C4637
:100F90004FF0010B46460DF1080A019062690121EC
:100FA00001989047051E2DD0252D2CD0216A884709
:100FB000C0B16269012101989047216A88470028E1
:100FC000F7D1411E62690198904700E0761CA16943
:100FD0000B988847216A88470028F7D1E1690B9868
:100FE0008847DBE7A1690B9888470746A84201D1EB
:100FF000761CD3E7E1690B9888477F1C02D1B8F1D2
:10100000000F6FD047E1002762693D4639460198DD
:1010100090472A2804D1626901210198904701254F
:10102000DFF888926269012101989047A0F13001B0
:101030000A290AD24F45E5DC07EB870100EB41079F
:10104000303FDFD445F01005ECE7E90601D46FF03E
:1010500000476C280AD04C2814D0682815D06A287C
:101060000DD074281CD07A281AD01DE062690121A5
:10107000019890476C2802D045F0040514E045F033
:1010800002050DE045F020050AE0626901210198A2
:101090009047682802D045F0080505E045F4006552
:1010A0006269012101989047C4E9015765283DD044
:1010B00019DC58287AD00CDC452837D004DC2528E8
:1010C00026D0412831D131E046282FD047282CD1D5
:1010D0002CE05B2877D0612828D063287CD0642856
:1010E00023D15AE0D1E06F2848D008DC66281DD013
:1010F00067281BD0692821D06E2816D127E07028D8
:1011000045D0732868D0752847D078280DD14DE098
:10111000A1690B988847054625283FF469AFE16926
:101120000B9888476D1C3FF46AAFB4E023466A46CB
:101130006FF001000B99FFF713FA9FE045F04000B4
:101140006060A80723464FF0000236D43EE0E8076F
:101150007FF447AF2068011D21600068290501D593
:1011600006701BE7290701D5068017E7A90703D5F5
:10117000F117C0E9006111E706600FE745F0400094
:101180006060A80723464FF0080216D41EE040F620
:101190000E0125EA0100606016E045F04000606045
:1011A000A80723464FF00A0207D40FE045F040009D
:1011B0006060A80708D5234610226FF001000B9944
:1011C000AFF300805AE007E0234610226FF00100E1
:1011D0000B99FFF71BF851E04FF000094F464B46C3
:1011E000632802D05B2807D041E02079C00601D4F3
:1011F0000120A06001273AE062690121019890472F
:101200005E2805D14FF0010962694946019890476F
:10121000216939B900210A46534643F82120491C67
:101220000829FADBB0B3216969B9C11700EBD162B3
:1012300053110AEB830122F01F02821A01200B686E
:10124000904003430B6062690121019890475D283B
:10125000E8D1B9F1000F09D00020514651F8202003
:10126000D24341F82020401C0828F7DB02AB22467D
:1012700000976FF001000B99FFF76EF800280CDA69
:10128000401C08D1BBF1000F05D04FF0FF300DB06E
:10129000BDE8F08FFFE74046F9E7E90701D108F123
:1012A000010806444FF0000B78E60000CCCCCC0CD3
:1012B0007F2801D9002208E0064A02EB5002C0074D
:1012C000127800D1120902F00F020120904008406C
:1012D00070470000644D0008FEE7704772B6FEE7F5
:1012E00010B590F821100022022905D00421816355
:1012F00080F82020012010BD01680B6823F00E0348
:101300000B6001680B6823F001030B6090F840301C
:10131000C46B012101FA03F3636080F8211080F8A7
:101320002020104610BD000010B590F821100024B8
:10133000022903D00421816301243DE001680A6889
:1013400022F00E020A6001680A6822F001020A60B7
:101350001A4A0168914201D1012121E0174A143251
:10136000914201D110211BE0144A2832914201D14F
:10137000891515E0114A3C32914201D189140FE0E0
:101380000E4A5032914202D14FF4803108E00B4AAC
:101390006432914202D14FF4801101E04FF080712C
:1013A000064A083A5160012180F82110002180F896
:1013B0002010416B01B18847204610BD0800024053
:1013C00070B5044600F004F90546601C02D00448DC
:1013D0000078044400F0FCF8401BA042FAD370BD32
:1013E000080000202DE9F84FDFF8B8910024A9F19A
:1013F000040B23460F2709F1040AABF1040EC9E0E0
:101400000125A5402A40AA427DD1674ED1F804C0EB
:10141000ACEB0608B44532D014DCBCF1030F3AD073
:1014200009DCBCF1000F2AD0BCF1010F1CD0BCF1CB
:10143000020F31D11DE0BCF1110F17D0BCF1120F1A
:101440002AD119E0B8F5881F19D006DCB8F5803F1D
:1014500015D0B8F5801F1FD111E0B8F5001F0ED0D0
:10146000B8F5041F18D10AE0CB6815E0CB681B1D46
:1014700012E0CB6808330FE0CB680C330CE08B68CC
:101480002BB1012B4FF0080303D0456104E0042386
:1014900002E0056100E00023FF2A01D8064601E0D2
:1014A00000F104064FEA840501D9A5F12005D6F81C
:1014B000008007FA05FC28EA0C0803FA05F548EA5B
:1014C0000508C6F800804D68ED0062D5374DAE695D
:1014D00046F00106AE61AD6924F0030605F0010592
:1014E0000095334D06EB050CDCF80850A607360FC7
:1014F00007FA06F825EA0805DFF8B880404503D169
:101500004FF0000817E044E0DFF8AC80404502D11E
:101510004FF001080FE0DFF8A480404502D14FF002
:10152000020808E0DFF89880404502D14FF0030838
:1015300001E04FF0040808FA06F848EA0508CCF87C
:1015400008804D68D9F80060ED024D4601D516437C
:1015500000E096432E604D68DAF80060AD02554613
:1015600001D5164300E096432E604D68DBF800601D
:10157000AD035D4601D5164300E096432E604D68ED
:10158000DEF80060ED03754601D5164300E0964392
:101590002E60641C0D682A46E5407FF431AFBDE83B
:1015A000F88F0000080401400000111000100240F4
:1015B0000000014000080140000C01400010014003
:1015C000001401400AB1016170470904FBE7000003
:1015D00001488068704700000800002070B50400D2
:1015E00025D094F83D00002520B984F83C502046D1
:1015F00000F07EFA242084F83D002068016821F084
:10160000010101602068016841F400410160206827
:10161000016821F40041016000F094FC4D4A6168CA
:10162000914201D84C4900E04C49884201D2012046
:1016300070BD4B492368B0FBF1F15E6826F03F06B0
:101640000E435E606368934206D94FF49673594324
:101650004FF47A73B1FBF3F12368491C1E6A26F03C
:101660003F06314319626168914210D84900401E1B
:10167000B0FBF1F2521CC2F30B02042A01D2042087
:1016800022E0B0FBF1F0401CC0F30B001CE0A268AC
:10169000F2B301EBC10303EB0116431EB3FBF6F3F8
:1016A0005B1C43F480431B0549D092B301EBC1029C
:1016B00002EB0111401EB0FBF1F0401CC0F30B0027
:1016C00040F4804040F400402168CA694CF6FF7342
:1016D0009A431043C861D4E90710014320680268A7
:1016E00022F0C00211430160D4E9030101432068E4
:1016F000826848F2FF339A4311438160D4E90501BF
:1017000008432168CA6822F0FF021043C86001E064
:101710000EE016E02068016841F0010101602564D7
:10172000202084F83D00256384F83E50002070BDE1
:1017300001EB4106431EB3FBF6F35B1CB3E701204C
:10174000C2E701EB4101401EB0FBF1F0401CC0F3C9
:101750000B00B7E7A086010080841E0000093D0051
:1017600040420F002DE9FF4F83B00025DDE91079DD
:101770009A4693460446DDF848800095FFF728FF17
:10178000064694F83D0020287CD11923012288497F
:101790002046009601F0F4F90028F5D194F83C00B9
:1017A00001286FD0012084F83C0020680168C90737
:1017B00003D1016841F0010101602068016821F452
:1017C00000610160222084F83D00402084F83E0042
:1017D00025646762A4F82A90608D20857548E062D0
:1017E000CDE9008653465A462046049901F0CAF8CE
:1017F00000287CD1208DDFF8C091202768B1012816
:1018000014D00228206801681ED041F48061016074
:101810002068416980690090BCE020684169816965
:101820000091016841F400710160B3E02068016833
:1018300021F48061016072B620684169816900917C
:10184000016841F400710AE041F40061016072B680
:101850002068416981690091016821F4806101601B
:1018600062B697E0032865D801280CD002284346C9
:101870004FF000024946204600960BD001F080F957
:10188000A8BB0CE091E032464146204601F01EFA2A
:1018900068BB72E001F074F948BB72B633E02068AF
:1018A000016821F48061016072B620680069616A94
:1018B0000870606A401C6062208D401E2085608D2B
:1018C000401E60853D4846F2A8110068B0FBF1F06B
:1018D000C0EBC00000EB80000090401E009007D0DD
:1018E00020684069C04340070DD50098F5E727E020
:1018F00044F8305F6773A573206940F020002061D1
:1019000062B625731CE02068016841F40071016033
:1019100020680069616A0870606A401C6062218DFD
:10192000491E2185618D491E618562B6216809695C
:10193000017026E032464146204601F0C7F918B151
:10194000012007B0BDE8F08F20680069616A087067
:10195000606A401C6062208D401E81B22185608DCE
:10196000401E608520684269D243520712D4032981
:1019700003D1016821F48061016020680069616A17
:101980000870606A401C6062208D401E2085608D5A
:10199000401E6085208D00287FF464AF84F83D7080
:1019A00084F83E5084F83C50CBE70220C9E70000A1
:1019B000020010000000FFFF0400010014000020DE
:1019C0002DE9FF4F83B09A46DDE91197934604460F
:1019D000DDF84080FFF7FCFD054694F83D00202827
:1019E0007FD11923012240492046009501F0C8F813
:1019F000002876D194F83C00012872D0012084F8A8
:101A00003C0020680168C90703D1016841F0010169
:101A100001602068016821F400610160212084F8E0
:101A20003D00402084F83E0000262664C4F824804F
:101A3000A4F82A90608D20852C48E062CDE90075DD
:101A400053465A462046049901F01AF870B930E01E
:101A50002A463946204601F071F958B1206C042815
:101A600004D12068016841F400710160012007B0D1
:101A7000BDE8F08F606A216800780861606A401CE8
:101A80006062218D491E89B22185628D521E628558
:101A900022685369DB435B070BD469B1007810619E
:101AA000606A401C6062208D401E2085608D401E53
:101AB0006085208D0028CBD12A463946204601F08A
:101AC00033F80028CAD154F83D0B016841F4007185
:101AD0000160202004F81E09E67766770020C6E73B
:101AE000FFE70220C3E70000020010000000FFFF34
:101AF00010B586B000210091019102910391006818
:101B00000F4988421AD10F4CA06940F00800A0612B
:101B1000A069694600F008000490C02000901220DF
:101B20000190032003900848FFF75CFCE06940F453
:101B30000010E061E06900F40010049006B010BDF0
:101B40000054004000100240000C0140024881682F
:101B5000027811448160704708000020074810B5E2
:101B6000016841F010010160032000F075F80F20BA
:101B700000F006F800F024F8002010BD002002401C
:101B800070B50D4D04464FF47A712878B1FBF0F032
:101B90000A490968B1FBF0F000F02BFC48B9102CA1
:101BA00007D200222146501E00F036F800206C605B
:101BB00070BD012070BD000008000020140000204E
:101BC0000C4808B5816941F001018161816901F02A
:101BD00001010091C16941F08051C161C06900F00B
:101BE000805000900448416821F0E06141F00071AC
:101BF000416008BD0010024000000140002809DBE0
:101C000000F01F02012191404009800000F1E02016
:101C1000C0F8001170470000F0B40E4B1B680C4672
:101C2000C3F30223C3F10705042D00D90425191DB0
:101C3000072901D2002300E0DB1E012606FA05F188
:101C4000491E214099409E40761E16403143F0BC0B
:101C500001F08ABB0CED00E0064900F007020868BD
:101C60004FF6FF03184040EA0220034A1043086081
:101C7000704700000CED00E00000FA05014901206A
:101C80000862704700000E4210B501460020234C48
:101C9000012922D0022939D010291DD1616822687A
:101CA000D20119D51E48C1F38342C903805C0AD50D
:101CB00061681B4AC1F34041921E515C194AB2FB54
:101CC000F1F1484301E0184948436168490203D4EF
:101CD00040000321B0FBF1F010BD226AC2F30121E4
:101CE000012903D1920701D5C80310BD022905D1EE
:101CF000626A920702D549F6404010BD0329FCD123
:101D000021688903F9D54FF2244010BD00F02AF96B
:101D10006168C1F38131491C4900DBE700100240D2
:101D20003C4D000800127A0000093D002DE9F843FF
:101D300005460078354CC00754D0E0690026C00045
:101D400008D4E06940F08050E061E069012600F0CD
:101D5000805000902E480168C90512D40168804661
:101D600041F480710160FFF733FC074605E000BFD6
:101D7000FFF72EFCC01B642823D8D8F80000C0054C
:101D8000F6D5206A10F4407021D0A98801F4407182
:101D900081421CD0206A1F49012220F440700A6051
:101DA00000220A602062C00711D0FFF711FC07462D
:101DB00041F2883808E000BFFFF70AFCC11B41452B
:101DC00002D90320BDE8F883206A8007F4D5206A91
:101DD000696820F44070084320621EB1E06920F079
:101DE0008050E0612878800705D56068A96820F4F4
:101DF0004040084360602878C00605D56068E968FF
:101E000020F48000084360600020DBE700100240FF
:101E100000700040400442422DE9F0470F460500A3
:101E200061D0434E306800F00700B84209D23068F4
:101E300020F0070038433060306800F00700B842F7
:101E400051D128683B4C810712D5400703D5606803
:101E500040F4E06060602878000703D5606840F4D3
:101E6000605060606068A96820F0F000084360601E
:101E70002878C00728D06868012810D02168022877
:101E800010D0890700292EDA616821F0030101438F
:101E90006160FFF79DFB804641F288390DE02168C3
:101EA0008903EFE78901EDE7FFF792FBA0EB08015B
:101EB000494502D90320BDE8F0876068696800F0F1
:101EC0000C00B0EB810FEFD1306800F00700B84292
:101ED0000BD9306820F0070038433060306800F0DC
:101EE0000700B84201D00120E5E72878400705D572
:101EF0006068E96820F4E0600843606028780007C3
:101F000006D56068296920F4605040EAC10060602D
:101F100000F038F86168084AC1F30311515CC84009
:101F20000649086006480068FFF72AFE0020C2E75D
:101F300000200240001002404C4D00081400002018
:101F40000C0000200448054900684968044AC1F3B0
:101F50000221515CC840704714000020001002406C
:101F60005C4D00080448054900684968044AC1F30B
:101F7000C221515CC840704714000020001002408C
:101F80005C4D00080E4A51680E4801F00C03042B0A
:101F900011D0082B0FD10C48C1F38343C903C05C97
:101FA0000AD55168084AC1F34041921E515C054A66
:101FB0005043B0FBF1F070470449484370470000BC
:101FC0000010024000127A002A4D000800093D006E
:101FD0002DE9F84F040070D02078C04DC00749D0DB
:101FE0006868C0F38100012807D06868C0F38100E9
:101FF000022809D16868C00306D52868800339D54E
:1020000060680028E7D035E06068B0F5803F0BD00D
:1020100010B1B0F5A02F11D0286820F480302860CE
:10202000286820F4802002E0286840F4803028608E
:10203000606890B1FFF7CCFA06460AE0286840F4E1
:1020400080202860F0E700BFFFF7C2FA801B6428F9
:1020500073D828688003F7D50CE0FFF7B9FA064675
:1020600005E000BFFFF7B4FA801B6428F0D82868A9
:102070008003F7D420789A4E80074FF001094FF083
:10208000000839D5686810F00C0F07D06868C0F3F5
:102090008100022809D16868C00306D42868800737
:1020A00014D52069012808D110E02069B0B1C6F824
:1020B0000090FFF78DFA074605E00AE1FFF788FA7E
:1020C000C01B0228C4D828688007F7D52868616932
:1020D00020F0F80040EAC10028600DE0C6F800805A
:1020E000FFF776FA074604E0FFF772FAC01B0228F2
:1020F00023D828688007F7D4207800072CD57948A2
:10210000A169D9B1C0F80090FFF762FA074604E070
:10211000FFF75EFAC01B02280FD8686A8007F7D560
:1021200071484FF4FA510068B0FBF1F0009000BF25
:102130000098411E0091FAD20EE080E0C0F80080C5
:10214000FFF746FA074604E0FFF742FAC01B0228F1
:1021500075D8686A8007F7D42078400760D5E869A9
:102160000027C00008D4E86940F08050E861E869C1
:10217000012700F0805000905C480168C90513D425
:102180000168834641F480710160FFF721FA8246BD
:1021900006E000BFFFF71CFAA0EB0A0064284ED847
:1021A000DBF80000C005F5D5E06801280AD008B1C9
:1021B000052813D0286A20F001002862286A20F040
:1021C000040002E0286A40F001002862E06841F261
:1021D000883B98B1FFF7FCF982460BE0286A40F093
:1021E00004002862EEE700BFFFF7F2F9A0EB0A0156
:1021F00059455AD8286A8007F6D50CE0FFF7E8F968
:10220000824605E0FFF7E4F9A0EB0A0159454CD8F6
:10221000286A8007F6D41FB1E86920F08050E86191
:10222000E06988B36968C1F38101022944D00228BA
:10223000C6F8608004D0FFF7CBF9044638E034E0FC
:10224000FFF7C6F9074604E0FFF7C2F9C01B0228F2
:102250002BD828688001F7D4206AB0F5803F05D1DB
:102260006868A16820F4003008436860D4E9080178
:102270000843696821F4741108436860C6F86090E7
:10228000FFF7A6F9044606E025E000BFFFF7A0F936
:10229000001B022809D828688001F7D51BE000BF81
:1022A000FFF796F9001B022802D90320BDE8F88F3A
:1022B00028688001F4D40EE00128F7D06868226A0B
:1022C00000F48031914204D1616A00F470108842B8
:1022D00001D00120EAE70020E8E7000000100240FA
:1022E000000042428004424214000020007000407E
:1022F00070B5040003D0607C002610B105E0012019
:1023000070BD2674204600F03DF80220607420461F
:1023100000F052F8042550BB204600F049FE30BBC7
:102320002068416821F007014160A06820B114488D
:10233000016821F0010101601148001F0168A268D5
:1023400021F46071114301606068411C04D10120D7
:10235000FFF79AFC58B1401E2268C0F30341916018
:10236000216880B2C860204600F03CFE08B1657468
:10237000C5E7E67301206073A0736074002070BD30
:10238000306C004008B50068084988420DD1FFF75D
:1023900075FC0748C16941F00061C161C069054928
:1023A00000F0006000900120086008BD0028004097
:1023B000001002403C04424270B504000AD020687C
:1023C000416821F008014160FFF702F905464FF42A
:1023D0007A7608E0012070BDFFF7FAF8401BB042A2
:1023E00001D9032070BD206840680007F4D50020A3
:1023F00070BD10B5401EB0F1807F01D3012010BD2B
:102400004FF0E02460610F21601700F0ADFF002065
:10241000A06107202061002010BD18B5034690F888
:102420004200202801D0022018BD61B15AB101201C
:10243000186300205863184600F020FF0028F3D1ED
:10244000196B012901D0012018BD19680A68496873
:10245000009119680C3151E8002F42F0100241E858
:102460000024002CF5D118BD70B50C460546006857
:102470000A49884202D1204601F0A0FF0849286895
:1024800088420AD107490C80074C04E0228807499A
:102490000748FFF7C2FF0028F8D170BD0044004094
:1024A0000048004022000020200000208405002079
:1024B0003C01002070470000F8B501680446086838
:1024C000CA684B6910F00F0F4FF0000559D003F0A8
:1024D000010602F49077374365D0C10705D0D105D6
:1024E00003D5616C41F001016164410705D5D9074D
:1024F00003D0616C41F002016164810705D5D90701
:1025000003D0616C41F004016164010707D502F05A
:102510002001314303D0616C41F008016164616CBA
:1025200000293AD0800604D5900602D5204600F056
:10253000E7FD20684069616CC0F38010090700D492
:1025400060B3204600F0B5FD20684069400621D503
:102550002068143050E8001F21F0400140E80012CC
:10256000002AF5D1E06BA8B16D494163E06BFEF73D
:10257000DBFE002811D0E06B416B01B0BDE8F040FC
:10258000084783060FD593060DD52046BDE8F840D1
:1025900000F0B6BD2046FFF78DFFF8BD2046FFF7DF
:1025A00089FF6564F8BD266B2023012E7CD1C60609
:1025B0007AD5D60678D508684868009048694FF003
:1025C0000206400640D5E16B086840680004000C34
:1025D000E8D0A28D8242E5D9E085886920282DD0F7
:1025E00020680C3050E8001F21F4807140E8001290
:1025F000002AF5D12068143050E8001F21F00101B5
:1026000040E80012002AF5D12068143050E8001F7D
:1026100021F0400140E80012002AF5D184F8423050
:10262000256320680C3050E8001F21F0100140E8BD
:102630000012002AF5D1E06BFEF752FE6663A08D12
:10264000E18D401A81B22AE0A08DE18D401A81B25D
:10265000E08D0028A6D00029A4D022680C3252E8D0
:10266000000F20F4907042E80007002FF5D1206899
:10267000143050E8002F22F0010240E80027002F1C
:10268000F5D184F84230256320680C3050E8002FE3
:1026900022F0100240E80023002BF5D166632046AB
:1026A000FFF7E2FEF8BDFFE705062BD5150629D595
:1026B00094F841002128F5D1A068B0F5805F01D1E0
:1026C0002069B0B1206A411C21622168007848600D
:1026D000E08C401E0004000CE084E3D12068C16857
:1026E00021F08001C1602068C16841F04001C160F3
:1026F000D8E7206A0088C0F308004860206A801C80
:102700002062E5E74006CDD55006CBD5CA68204605
:1027100022F04002CA6084F8413000F01AF9C1E7A3
:10272000A330000870B5040004D094F841000025DF
:1027300010B106E0012070BD84F84050204600F042
:1027400023F8242084F841002068C16821F4005156
:10275000C160204600F036FD2068016921F49041F7
:1027600001612068416921F02A0141612068C16846
:1027700041F40051C1606564202084F8410084F870
:1027800042006563002070BDF0B585B00024009460
:1027900001940294039403683F4F02203F490322AF
:1027A0003F4D4602BB4220D18B6943F480438B618D
:1027B0008B6903F4804304938B6943F004038B61BA
:1027C0008969039201F0040104910102CDE900102E
:1027D00069462846FEF706FECDE9006469462846AC
:1027E0000294FEF7FFFD05B0F0BD2E4FBB4226D18F
:1027F000CB6943F40033CB61CB6903F4003304931A
:102800008B6943F004038B618969039201F0040131
:1028100004910421CDE9001069462846FEF7E2FD47
:102820000820CDE90004694628460294FEF7DAFD47
:10283000002203212620FFF7EFF9262028E01A4D79
:10284000AB42D0D1CB6943F48023CB61CB6903F495
:10285000802304938B6943F008038B618969134DCE
:1028600001F00801CDE90321CDE900606946284661
:10287000FEF7B8FDE814CDE9000469462846029445
:10288000FEF7B0FD002203212720FFF7C5F927201E
:10289000FFF7B4F9A7E7000000380140001002403C
:1028A000000801400044004000480040000C014086
:1028B00070472DE9F843044690F8410098461646C3
:1028C0000D46202802D00220BDE8F88385B17EB1F4
:1028D00000206064212084F84100FEF779FEA68480
:1028E0008146E684A0682027B0F5805F02D003E02F
:1028F0000120E9E7206910B12E4600250EE00026F0
:102900000CE08021204600F0D4FCA8B9C6B116F82E
:10291000010B21684860E08C401EE084E08C4B464F
:102920004FF00002CDF800800028EAD14FF04001BE
:10293000204600F0BEFC40B184F841700320C3E79C
:1029400035F8020BC0F30800E3E784F8417000207B
:10295000BAE77047FEE701684A69D24352050FD4CF
:102960006FF480624A61002140F8301F20224273D8
:102970008173026942F00402026101730120704711
:10298000002070472DE9F84F0446006889460B9DEA
:1029900001689846174641F480610160206801682B
:1029A00041F48071016000954FF0011B00225946EF
:1029B00020460A9B00F0E4F84FF4007A40B120680A
:1029C0000068C00501D5C4F840A00320BDE8F88F19
:1029D000216809F0FE0008612B46284920460A9A22
:1029E00000F016F9F0BB20684169806900902A4622
:1029F00020460A9900F0A2F940B1206C04283AD18F
:102A00002068016841F40071016034E0FEB2B8F161
:102A1000010F09D02168380A08612A4620460A9920
:102A200000F08CF90028E8D1206806612A4620468B
:102A30000A9900F083F90028DFD12068016841F489
:102A40008071016000950022594620460A9B00F0E3
:102A500097F80028B3D1216809F0FF0040F0010089
:102A6000086100E007E02B46044920460A9A00F07E
:102A7000CFF80028AAD00120A8E70000020001003A
:102A80002DE9F843044600680D46DDE90897016822
:102A90009846164641F4807101604B4600224FF083
:102AA00001112046009700F06BF848B120680068DB
:102AB000C00502D54FF4007020640320BDE8F88300
:102AC000216805F0FE0008613B464A46154920464C
:102AD00000F09EF888B920684169806900903A4604
:102AE0004946204600F02AF948B1206C042804D158
:102AF0002068016841F4007101600120DEE7F5B251
:102B0000B8F1010F09D02168300A08613A464946F8
:102B1000204600F013F90028E7D120680561002065
:102B2000CCE700000200010070B516460D460446D1
:102B30001EE02046FFF70FFF08B1012070BD681CA2
:102B400016D0FEF745FD801BA84200D885B9206845
:102B50004069C04340070BD5002044F8300F2021C6
:102B60006173A073216941F0200121612073E4E7C2
:102B700020684069C0434007DBD4002070BD0000DE
:102B80002DE9F047984617460D460446C1F307461F
:102B9000DDF820902AE000BFB8F1FF3F26D0FEF715
:102BA00017FDA0EB0901414502D8B8F1000F1DD176
:102BB0002068012E16D0806925EA00000004000C70
:102BC00012D00020B84211D1002044F8300F20214B
:102BD0006173A073216941F02001216120730120FC
:102BE000BDE8F0874069E7E70120EBE72068012EA8
:102BF0000AD0806925EA00000004000C06D00020FD
:102C0000B842C9D00020EBE74069F3E70120F7E7BD
:102C10002DE9F047984616460D4604464FF0000948
:102C20004FF0200AC1F3074723E020684069C04302
:102C3000400515D42068016841F4007101602168E5
:102C40006FF480604861C4F8309084F83DA084F847
:102C50003E90216C41F00401216484F83C9021E015
:102C6000701C06D0FEF7B4FCA0EB0800B04203D8FD
:102C700016B1012F1FD021E02068012F15D08069E7
:102C800025EA00000004000C18D000BF44F8309F73
:102C900084F80DA084F80E90216941F02001216193
:102CA00084F80C900120BDE8F087406925EA000017
:102CB0000004000CEAD12068406901E020688069C6
:102CC00025EA00000004000CAFD1ECE72DE9F0414B
:102CD000002590460E460446202728E04069C04360
:102CE000C0060CD454F8301B6FF01000486144F853
:102CF00010596777A577206A2062257714E0FEF7E0
:102D000067FCA0EB0800B04200D886B92068406993
:102D1000C04340060BD544F8305F6773A573206944
:102D200040F02000206125730120BDE8F08120687B
:102D30004169C9434906D1D40020F6E770B516466B
:102D40000D4604461EE02046FFF705FE08B10120AF
:102D500070BD681C16D0FEF73BFC801BA84200D853
:102D600085B920684069C04300060BD5002044F8AF
:102D7000300F20216173A073216941F0200121618E
:102D80002073E4E720684069C0430006DBD40020DC
:102D900070BD000030B585B000241F480094019438
:102DA00002940394816941F010018161816901F00D
:102DB00010010491816941F020018161816901F074
:102DC00020010491816941F004018161816901F070
:102DD00004010491816941F00801816180690F4D0E
:102DE00000F008000490002242F208012846FEF795
:102DF000E9FB012220212846FEF7E4FB42F22800ED
:102E000000900120CDE90104032003906946284683
:102E1000FEF7E8FA05B030BD00100240000C01409A
:102E20000D4810B50B4901600C49416000214FF479
:102E300080428160C0E9031241618161C161016228
:102E4000FEF7CCFB002803D0BDE81040FEF746BAE1
:102E500010BD00000054004044000020A086010086
:102E60000A4810B5084901604FF0FF3141604FF446
:102E700080718160FFF73CFA002803D0BDE8104064
:102E8000FEF72CBA10BD000000280040980000207A
:102E90000C4810B50A4901604FF4E131416000214E
:102EA00081600C22C160C0E904128161C161FFF739
:102EB00039FC002803D0BDE81040FEF70FBA10BD62
:102EC00000380140AC0000200C4810B50A490160F0
:102ED0004FF416514160002181600C22C160C0E9AD
:102EE00004128161C161FFF71DFC002803D0BDE819
:102EF0001040FEF7F3B910BD00440040F40000207C
:102F00000C4810B50A4901604FF416514160002188
:102F100081600C22C160C0E904128161C161FFF7C8
:102F200001FC002803D0BDE81040FEF7D7B910BD62
:102F3000004800403C010020FEE700002DE9F04180
:102F40000746D7E9000104460D46FDF783FE154EFE
:102F500080460022334620462946FDF774FDFDF7E2
:102F600016FEFDF7F6FDC7E9000104460D460022F6
:102F70003346FDF7F6FC07460E464046FDF726FEB3
:102F80003A463346FDF7E7FCFDF764FE0649FDF7D8
:102F900003FCFDF71BFE22462B46BDE8F041FDF782
:102FA00039BC00000000594000007042FEE7704745
:102FB00070B50446FEF70CFB05464FF47A7606E042
:102FC000FEF706FB401BB04201D9032070BD20680C
:102FD00040688006F4D52068416841F010014160E6
:102FE000002070BD70B504460068416821F01001F2
:102FF0004160FEF7EDFA05464FF47A7607E000BF30
:10300000FEF7E6FA401BB04201D9032070BD2068EC
:1030100040688006F4D5002070BD7047FEF796BD6D
:1030200070B594B028216846FDF7A7F814210AA8C6
:10303000FDF7A3F8002501240F95119505201295A1
:103040000090CDE9025410954FF480300190022693
:103050000494CDE907604FF4E01009906846FEF74C
:10306000B7FF08B172B6FEE70F20CDE90A064FF4AC
:103070008060CDE90C5002210AA80E95FEF7CCFE27
:1030800008B172B6FEE74FF48070CDE90F400FA88B
:10309000FEF74CFE002801D072B6FEE714B070BDFA
:1030A000704710B5406A0021C185C184FFF702FA5C
:1030B00010BD01680C3151E8002F22F4907241E8F4
:1030C0000023002BF5D10168143151E8002F22F0C4
:1030D000010241E80023002BF5D1016B012909D140
:1030E00001680C3151E8002F22F0100241E8002362
:1030F000002BF5D1202180F8421000210163704798
:1031000008B590F84210222901D0022008BD82683B
:103110004FF480539A4201D1016921B1816A9A42E8
:103120001BD04AB10AE00268816A5268C2F3080201
:103130000A80816A891C08E0026972B102685268DB
:1031400002F07F020A70816A491C8162C18D491EAA
:103150000904090CC18503D01BE002685268F1E73D
:103160000168CA6822F02002CA600168CA6822F4B5
:103170008072CA6001684A6922F001024A61202116
:1031800080F8421000214163026B012A03D0FFF74F
:103190008FFB002008BD016301680C3151E8002F4E
:1031A00022F0100241E80023002BF5D101680A68E3
:1031B000D20602D50A6849680091818DFFF754F95B
:1031C000E7E7000070B5044600680169E26821F491
:1031D0004051114301612169A068084361690843B6
:1031E0002168CA6841F20C639A430243CA602068AE
:1031F0004169A26921F44071114341611E4920686F
:10320000884202D1FEF7AEFE01E0FEF79BFE00EB26
:10321000C00101EB0012606864218000B2FBF0F392
:10322000B3FBF1F36FF018067343B2FBF0F5B2FB9A
:10323000F0F605EB8305322303EB0515B5FBF1F53D
:10324000B6FBF1F605F0F00505EB0615B2FBF0F65E
:10325000B2FBF0F0B0FBF1F06FF01802504306EB58
:10326000800003EB0010B0FBF1F0216800F00F00CC
:103270002844886070BD000000380140816282856A
:10328000C28500214164222180F84210016921B1E8
:103290000168CA6842F48072CA6001684A6942F0F3
:1032A00001024A610068C16841F02001C16000204C
:1032B00070472DE9F843984617460D460446089E88
:1032C00024E0701C22D0FEF783F9A0EB0800B04286
:1032D0001AD8CEB12068C168490717D5802D15D0FE
:1032E000402D13D00168C94309070FD40168002598
:1032F000406800902046FFF7DCFE0820606484F8F8
:1033000040500120BDE8F8830320FBE720680068F7
:1033100035EA000004D00020B842D2D00020F1E706
:103320000120F9E70148FFF7C7B80000F4000020CA
:103330000148FFF7C1B800003C010020FEE7000093
:103340000FB4084B10B504A902AA039800F04CF979
:10335000044602A9002000F0CAFC204610BC5DF81B
:1033600014FB0000EF3C00080907090E002804DBED
:1033700000F1E02080F80014704700F00F0000F129
:10338000E02080F8141D704730B528B1144C031F9D
:10339000002021680A4605E0084630BD9A4203D85D
:1033A00010465268002AF9D1002800D041680BD09D
:1033B0000468A3EB0005A54204D11B681C44034626
:1033C000046002E0436000E023603AB11C68D51A53
:1033D000A54203D115682C441C6052685A6030BD68
:1033E0003C0000202DE9F04782460F4C10480D4E5E
:1033F0000E4F001B4FF0000820F007054FF00109A9
:1034000000221146504601F057F9002802D13068D9
:1034100010B10020BDE8F0873C60C4E90058C6F850
:103420000090EDE740000020C41100203C00002087
:10343000C015002002E008C8121F08C1002AFAD1F6
:1034400070477047002001E001C1121F002AFBD124
:10345000704700002DE9FF5F82B00021DDE90430F4
:10346000020DDDF840B0034318D044F61050A2F22C
:10347000FF3242431514119801281FD0A5EB0B0011
:10348000401C5FEA000A4FF000064E4FDFF838910B
:10349000B046504615D5CAF1000413E01198012436
:1034A0004AA3012801D16FEA0B010298119AC0E9E1
:1034B0000031C0E9024206B0BDE8F09FCBF1000048
:1034C000DFE704460021404A491842EB0450CDE9A9
:1034D000001012E0E00707D032463B46404649461E
:1034E000FDF73FFA8046894632463B46104619466C
:1034F000FDF737FA06460F466410002CEAD1DDE9E5
:103500000401DDE90023BAF1000F06DAFDF729FA1C
:1035100042464B46FDF725FA05E0FDF794FA424690
:103520004B46FDF790FA04460E460022284BFDF765
:1035300079FB03D84FF0FF30014607E00022254B0E
:1035400020463146FDF766F9FDF7EAFC102409E054
:10355000002C0ADB0A220023FDF7AEFB039B30326E
:103560001A55641E50EA0102F2D1641C039AC4F198
:1035700011031444119A012A03D0012208430DD1EA
:103580000AE0084304D000204FF0110B119072E7BD
:10359000A3EB0B056D1E0DE05B4504DD4FF0000253
:1035A00005F1010504E003DA4FF00002A5F1010581
:1035B000002AECD002981199C0E90231C0E9004517
:1035C00079E70000000014400000F03F30000000E8
:1035D0000000F0430000E03F30380A2801D201200B
:1035E00070470020704700002DE9FF4F95B09A46C4
:1035F000884606460025EEE1252877D10024274697
:10360000F94A0121039400E0044316F8013F203BEE
:1036100001FA03F01042F7D130782A2811D06FF068
:103620002F033078A0F13002092A16D8039A44F00B
:10363000020402EB820203EB42021044761C039068
:10364000EFE758F8042B0392002A03DA504244F4BF
:103650000054039044F00204761C30782E2816D1D2
:1036600016F8010F44F004042A280DD06FF02F0241
:103670003078A0F13003092B09D807EB870302EB60
:103680004303C718761CF3E758F8047B761C3078A0
:103690006C280FD006DC4C2817D068280DD06A287B
:1036A00014D104E0742810D07A280FD10DE044F42E
:1036B00000140AE044F4801401E044F440147278E9
:1036C000824202D104F58014761C761C307866287C
:1036D0000BD013DC582877D009DC002875D045289A
:1036E000F6D04628F4D047281AD193E118E0632891
:1036F00035D0642879D0652812D18BE1702873D039
:1037000008DC6728F1D069286FD06E280DD06F28AB
:1037100006D1ACE073282CD0752874D0782853D00B
:103720005246179990476D1C54E1C4F30250022889
:1037300009D003280DD0D8F8001004280DD00D6052
:1037400008F1040846E1D8F80010EA17C1E9005270
:10375000F6E7D8F800100D80F2E70D70F0E718F8E2
:10376000041B8DF8001000208DF80100EB460120AD
:1037700003E058F804BB4FF0FF3061074FF0000141
:1037800002D40DE009F101018946B9420FDA814501
:10379000F8DB1BF809100029F4D108E009F1010158
:1037A00089468142FADB1BF809100029F6D10398FB
:1037B0005346A0EB090721463846179A00F080FAD5
:1037C000284400EB090507E044E008E10DE01BF8A0
:1037D000010B524617999047B9F10109F7D25346A8
:1037E00021463846179AF2E039E00A21C4F3025222
:1037F0004FF0000B0091022A06D058F8040BC117B5
:10380000032A09D00AE023E008F1070020F00702AC
:10381000F2E80201904605E000B2C117042A01D186
:1038200040B2C117002906DA0A460021404261EB86
:1038300002012D2202E0220504D52B228DF804205E
:10384000012203E0E20701D02022F7E7914657E08A
:103850000A2100E010214FF0000B00910BE0102135
:103860004FF0000B44F004040827009103E0082007
:103870004FF0000B0090C4F30252022A05D058F812
:10388000040B0021032A08D008E008F1070020F00B
:103890000702F2E80201904603E080B2042A00D158
:1038A000C0B24FF0000922072AD53278702A07D01B
:1038B000DDF800C08CF0100C5CEA0B0C05D00EE0BB
:1038C00040228DF80420012208E050EA010306D0CE
:1038D00030238DF804308DF8052002229146009B9C
:1038E00083F0080353EA0B030AD150EA010201D125
:1038F000620705D530228DF804204FF001097F1EA4
:103900003278582A04D039A20C920CAA02920BE009
:103910003BA2F9E75B46009AFDF7CEF90C9B9B5C56
:10392000029A521E0292137050EA0102F2D10298DA
:1039300004A9081A00F1200B600702D524F4803492
:1039400000E001275F4502DDA7EB0B0000E000204F
:1039500000EB0B01009003984944401A0390E003E8
:1039600006D453462146179A039800F0A9F9054456
:10397000002706E001A85246C05D179990476D1CCC
:103980007F1C4F45F6DBE0030CD553462146179AC2
:10399000039800F095F9054404E030205246179949
:1039A00090476D1C0099481E00900029F5DC08E046
:1039B0000298029952460078491C02911799904743
:1039C0006D1CBBF10001ABF1010BF1DC5BE100F020
:1039D00065F90544761C307800287FF40DAE19B0E7
:1039E0002846BDE8F08F000009280100303132334D
:1039F000343536373839616263646566000000002B
:103A00003031323334353637383941424344454614
:103A100000000000600700D4062708F1070020F02E
:103A20000700F0E80223804603F0004C5FEA0C0038
:103A300001D097A009E0200501D596A005E0E00798
:103A400001D095A001E0AFF24C001390307823F044
:103A5000004365280CD006DC452809D046281DD037
:103A600047287FD13BE0662818D067287AD136E016
:103A70000021112F01DB112000E0781CCDE90001AD
:103A800004A90CA8FFF7E6FCDDE90D010C9A4FF044
:103A9000000B07F10109109200914EE04FF0004039
:103AA0000097CDE9011004A90CA8FFF7D3FCDDE9CC
:103AB0000D020C9B0F994FF0000B91461093009252
:103AC00011B9791C00EB0109B7EB090003D4C0F16F
:103AD000FF3B07F10109A9EB0700019042E0012F2C
:103AE00000DA01270021112F01DD112000E0384606
:103AF000CDE9000104A90CA8FFF7ACFCDDE90D013C
:103B00000C9A00914FF0000BB946109221070FD488
:103B1000009A4A4503DA914601E0A9F10109B9F199
:103B2000010F05DD109AA9F10101515C3029F4D093
:103B3000B84202DA10F1040F03DA0121CDE90110D5
:103B400010E0002803DC8344A9EB000102E0411CE3
:103B5000494500DD8946A0EB0B00401C01904FF069
:103B600000400290200705D40198484502DB4FF041
:103B7000FF30019000208DF84B0002980DF14B07AB
:103B8000B0F1004F25D002200C902B200D90029810
:103B900000280CDA404202902D200D9007E00A2107
:103BA0000298FDF773F83031029007F8011D0C9967
:103BB000481E0C900029F2DC02980028EFD1791EF3
:103BC0000D980870307800F0200040F0450007F8AC
:103BD000020D11A8C01BC01D02901398007800B1FF
:103BE000012000EB0901019801EBE071029801440A
:103BF0000398401A401E0390E00306D45346214622
:103C0000179A039800F05CF805441398007818B1EF
:103C10005246179990476D1CE00323D55346214621
:103C2000179A039800F04CF805441BE0BBF1000F15
:103C300007DB0098584504DD1098179910F80B0021
:103C400001E0179930205246904701980BF1010B83
:103C5000401E05F10105019004D12E20524617990E
:103C600090476D1CB9F10001A9F10109DEDC05E006
:103C700017F8010B5246179990476D1C0299481E80
:103C800002900029F4DC53462146179A03989EE6D9
:103C90002D0000002B000000200000002DE9F04165
:103CA000044600251E461746880404D405E039461C
:103CB0002020B0476D1C641EF9D52846BDE8F08170
:103CC0002DE9F041044600251E469046C80301D563
:103CD000302700E02027880404D505E04146384617
:103CE000B0476D1C641EF9D52846BDE8F0810A680E
:103CF000531C0B601070704711B108B1884201D19C
:103D00000020704782683AB152681AB111604A6067
:103D1000806841600120704781600020C1E9000196
:103D2000F8E72DE9F04106000698984614460D463E
:103D300021D005B3FCB1A6421DD018B1E06840F413
:103D4000007708E01946284600F0E0F9050012D097
:103D5000E06820F40077A089800504D4206A10B1BF
:103D6000D8F804108847E760214630462562BDE850
:103D7000F041FFF7C1BF0020BDE8F08110B500F0B1
:103D80004BFA00F0B1FABDE8104000F0D9BB0000DA
:103D90002DE9F047544C8EB08946824630254FF4C9
:103DA0007A765149514800F0DFFA51494F48FCF703
:103DB00008FA4E48FCF7FEF90104090C2180F0D006
:103DC0008DF8105004AA4BA14848FCF703FA9DF85F
:103DD0001000412803D03046FDF7F2FAE1E74A4EE1
:103DE0000AA8A6F11005A6F10807CDE90260CDE901
:103DF0000057A5F108030CAA44A13C48FCF7EAF9D6
:103E00009DF8320006AC9DF835309DF834209DF8C1
:103E1000331084E80F009DF8280002AC9DF8313083
:103E20009DF830209DF8291084E80F009DF82B1094
:103E30009DF82A00CDE90001B01C9DF82D309DF8B9
:103E40002C203FA18046FFF77BFAA5F10800FFF781
:103E500075F8A5F10804C4E900013846FFF76EF8CB
:103E6000C4E9040100F0FEF9206300F0F1F8074610
:103E700042463BA100F0A4F8D4E900233BA1384618
:103E800000F084F8D4E9042339A1384600F07EF824
:103E90002A4638A1384600F093F8324637A1384612
:103EA00000F08EF8206BFCF765FE02460B4635A14C
:103EB000384600F06BF8384600F022F904463846E0
:103EC00000F0EAF82046FCF775F983B20120009073
:103ED00022464946504600F085FA2046FFF754FA3C
:103EE0000EB0BDE8F087000024000020880D0020FF
:103EF000B44D000824474E524D432C252A5B5E2CBE
:103F00005D2C256300000000A011002024474E52C4
:103F10004D432C253130732C412C256C662C2531DA
:103F2000732C256C662C2531732C252A5B5E2C5D49
:103F30002C252A5B5E2C5D2C2536732C000000009E
:103F40003230256325632D256325632D2563256385
:103F500020256325633A256325633A25632563009D
:103F60006461746574696D65000000006C617400C3
:103F70006C6F6E006C617444697200006C6F6E440B
:103F8000697200007374657000000000F8B50C469B
:103F900005461046194600F02BF806460020009012
:103FA000064B324621462846FFF7BBFE0028304626
:103FB00002D100F071F80020F8BD000030000020B0
:103FC000F8B505460C46104600F04EF806460020AF
:103FD0000090064B324621462846FFF7A2FE0028F5
:103FE000304602D100F058F80020F8BD3000002023
:103FF00070B505460E46124800F076F804001CD055
:104000000820E060C4E906560E4A0F4B28463146A8
:10401000FCF708FE02D86FF000400DE000220B4BC9
:1040200028463146FCF7E6FD02D84FF0004003E099
:1040300028463146FCF7ABFD6061204670BD0000AC
:10404000300000200000C0FFFFFFDF410000E0C1A2
:1040500010B5044800F048F8002801D04021C160A4
:1040600010BD00003000002070B50546094800F082
:104070003BF8040007D01020E0600649284600F015
:1040800045F8206108B1204670BD204600F004F8D4
:10409000002070BD300000202DE9F04104460027CB
:1040A000104E1BE0A0892568C0050BD4A06820B184
:1040B000FFF7F2FFA089C00504D4206910B1716830
:1040C00088472761A089800504D4206A10B17168EF
:1040D000884727627168204688472C46002CE1D12A
:1040E000BDE8F0813000002010B501682820884725
:1040F000040002D02821FCF740F8204610BD000043
:10410000014A002100F01CBB3000002070B50E46B3
:1041100005000DD0FCF74EF8401C31680446884776
:10412000060005D022462946FCF70EF8304670BD41
:10413000002070BD2DE9F0479846894623F00046DF
:1041400021F000470546144633463946FCF76AFD20
:1041500002D22846394601E0204631466FF033024C
:10416000FCF7E0FC06460F462246434628464946F1
:10417000FCF7F1FB21F0004132463B46FCF73AFDEB
:1041800002D80120BDE8F0870020FBE72DE9F041CF
:1041900004001CD02268D2B1636813B1A0689842B1
:1041A00015D24FF00046B14211D2A568491C6818DB
:1041B000834202D35019BDE8F081216939B9B0F1C9
:1041C000804F06D3B04202D26FF0004702E00020D9
:1041D000F1E74700236A00262BB13946104698477D
:1041E000050012D00CE0A1693846884705000CD0C4
:1041F000A2682168521CFBF7A7FFE1692068884785
:10420000C4E90057A0682844D5E7E16920688847D9
:1042100066602660DBE700001FB5104C00222021FD
:104220002046FDF7CFF90320FDF7CAF818208DF8D6
:104230000C0001214FF47A7203A88DE807000B46A9
:10424000C3224E210648FDF7BBFB01222021204658
:10425000FDF7B8F90A20FDF7B3F81FBD000C0140C7
:1042600044000020FEB51D4F002220213846FDF7F6
:10427000A9F90320FDF7A4F80126194CCDE9004661
:104280004FF47A753346C4224E2116480295FDF745
:1042900069FA601CCDE900060123C5224E21029572
:1042A0001048FDF75FFAA01CCDE900060123C622E5
:1042B0004E2102950B48FDF755FA01222021384680
:1042C000FDF780F90A20FDF77BF82078617840EA55
:1042D0000120A17840EA0140FEBD0000000C014031
:1042E000180000204400002030B589B001220821C8
:1042F0001148FDF767F9C820FDF762F84FF48065B3
:1043000005E02A460D490E48FEF787F80446002CC2
:10431000F7D114220BA104A8FBF716FF0EA30FCBB5
:104320008DE80F00112104A800F03EF80E21684628
:1043300000F03AF809B030BD000C014084010020C3
:10434000F4000020245043415330322C31303030BF
:104350002A32450D0A000000245043415330342CCA
:10436000332A31410D0A00002DE9F0410D46074680
:10437000FBF720FF01463846FBF7FFFE084C0026FE
:104380002E802288002A09D006493846FBF7DCFE39
:10439000218829800348FBF7F0FE2680BDE8F081E4
:1043A0001C000020840100200A4601464FF47A7365
:1043B0000148FEF77EBA0000F400002010B5064A5E
:1043C0004FF48064108004E0224604490448FEF75C
:1043D00024F80028F8D110BD1C0000208401002022
:1043E000F40000202DE9F04F8FB09A4693460E4618
:1043F00007460A254FF000084FF47A79354C02E061
:104400004846FCF7DDFF34A000F02AF935A1374813
:10441000FBF7BEFE38B12F4A35A13448FBF7DAFE70
:10442000A4F8048002E06D1EEDB2E9D2BDB122789D
:1044300032A16846FEF784FF684600F011F936A104
:104440002A48FBF7A5FE50B1224A29A1521C274851
:10445000FBF7C0FEA4F804800A25C84606E0012048
:104460000FB0BDE8F08F4046FCF7AAFF00963B4630
:1044700062782AA101A8FEF763FF01A800F0F0F816
:1044800025A11A48FBF784FE10B96D1EEDB2EAD2E1
:10449000002DE4D051465846189A00F06FF80028D5
:1044A000DDD10A25464602E03046FCF789FF6278F6
:1044B0001FA16846FEF744FF684600F0D1F816A138
:1044C0000A48FBF765FE10B96D1EEDB2ECD2002074
:1044D000C6E700001E00002041542B4347415454BE
:1044E0003F0D0A002B43474154540000840500202F
:1044F000252A5B5E3A5D3A256868640041542B4E7C
:10450000534F43523D53545245414D2C362C302C81
:1045100025640D0A000000004F4B000041542B4E53
:10452000534F434F3D25642C25732C25640D0A0001
:1045300041542B4E534F434C3D25640D0A0000005F
:1045400070B540F6B830FCF73BFF074D05E06A88D0
:1045500006490748FDF761FF0446002CF7D1BDE886
:10456000704004A000F07CB81E00002084050020EC
:104570003C01002041540D0A000000002DE9F041EB
:10458000ADF5107D17460D4680460024204E07E00D
:1045900018F8042006EB44001EA1FEF7D1FE641CAF
:1045A000AC42F5DB1D4CCDE900672B4662781CA1BF
:1045B00002A8FEF7C5FE02A800F052F820492148E3
:1045C000FBF7E6FD10B33B4662781FA182A8FEF719
:1045D000B7FEFCF7FDFF00F5FA640AE082A800F0E0
:1045E0003FF81EA11748FBF7D3FD30B96420FCF754
:1045F000E7FEFCF7EDFFA042F0D3FCF7E9FFA04295
:1046000004D200200DF5107DBDE8F0810120F9E70E
:104610008409002025303258000000001E000020D0
:1046200041542B4E534F53443D25642C25642C2577
:10463000732C30783230302C25640D0A00000000D5
:10464000184500088405002041542B534551554519
:104650004E43453D25642C25640D0A0031000000C1
:1046600070B5124D044612486988FBF786FD00209C
:10467000A8802046FBF79EFD82B24FF47A73214654
:104680000C48FEF716F9FCF7A3FF044640F6B836CF
:1046900002E00120FCF794FEA888002804D1FCF772
:1046A00097FF001BB042F4D370BD00001E00002035
:1046B000840500203C0100202DE9F0410B3020F062
:1046C0000706104D19E02068B04215D3B0420AD950
:1046D000871B201DD4F80480FBF736FDA019C0E924
:1046E0000078286004E060682860201DFBF72CFD3E
:1046F000201D2660BDE8F081251D2C68002CE2D12C
:104700000020F7E73C000020FDF728FAFEF788FCC0
:10471000FEF740FBFEF7A4FBFEF7BAFBFEF780FBBB
:10472000FEF7D2FBFEF7ECFBFFF776FDFFF726FB6B
:10473000024801884068FFF72BFBFEE700000020DD
:10474000F0B589B00E460746144624216846FBF7AB
:1047500014FD4FF480752168284688470596CDE9F9
:10476000000594E8070006AB83E80700009890B3C3
:104770006946384600F02CFA002638B3684600F047
:10478000C5FAA2684AB102990098491C90470500F1
:104790001CD02846009609B0F0BD02982168401C44
:1047A0008847050012D0DDE90110401C814201D28A
:1047B0000A4601E0029A521C28460099FBF7C4FC05
:1047C00002982E54616800988847E2E7009810B17B
:1047D0006168884700960020DDE72DE9F041856893
:1047E0000C000FD001212046FFF7D0FC00280AD092
:1047F0005B210170A068401CA060E068401C00269E
:10480000E06025E00020BDE8F0812146284600F068
:10481000DFF90028F7D0204600F078FA2868B0B118
:10482000606908B1022700E00127791C2046FFF7E4
:10483000ADFC0028E7D02C2100F8011B616911B103
:10484000202100F8011B0670A0683844A0602D6884
:10485000002DDAD102212046FFF798FC0028D2D0A3
:104860005D2101704670E068401EE0600120CAE7EB
:104870002DE9F04706468AB0D6E906548846002757
:104880001C216846FBF779FC0020CDE908004FF0B9
:104890002E09B8F1000F42D00DB1012000E0002038
:1048A00020432E4920F00040081AC00F4FF0000AA4
:1048B00012D14800B0EB440F00D16DB17069FCF724
:1048C00048F92A462346FCF795F90AD124A16846FF
:1048D0007269FEF735FD1FE022A16846FEF730FD44
:1048E0001AE02A46234621A16846FEF729FD06461E
:1048F00008AA20A16846FBF76DFC012806D1DDE976
:1049000008012A462346FFF715FC30B92A462346FC
:1049100019A16846FEF714FD06461A2E03D300209F
:104920000AB0BDE8F087711C4046FFF72FFC002855
:10493000F6D069462E2306E0CA5D4A4501D1C3552B
:1049400000E0C2557F1CB742F6D300F807A0D8F8A4
:10495000080081190120C8F80810E1E70000F07F85
:10496000256400006E756C6C0000000025312E314E
:1049700035670000256C670025312E313767000050
:104980002DE9F04785680C0003D0606920B102264C
:1049900003E00020BDE8F0870126711C2046FFF7E8
:1049A000F5FB0028F6D07B2100F8011BE168491CCB
:1049B000E16061690A2701B10770A0684FF0000843
:1049C00030440926A06059E088B12046E168FFF72D
:1049D000DDFB0028DED0002103E000BF00F8016B02
:1049E000491CE2688A42F9D8A0681044A0602146B8
:1049F000286A00F065F80028CCD0204600F086F93F
:104A0000606908B1022000E001208146014620468D
:104A1000FFF7BCFB0028BDD03A2100F8011B6169FB
:104A200001B10670A16801EB0900A060214628468B
:104A300000F0CEF80028ADD0204600F067F960699C
:104A400000B10120296801B1012100EB010909F140
:104A500001012046FFF79AFB00289BD0296811B17D
:104A60002C2100F8011B616909B100F8017B80F875
:104A70000080A16801EB0900A0602D686069002D2D
:104A8000A2D110B1E168491C00E002212046FFF7E5
:104A90007DFB002886D0616949B1002103E000BF99
:104AA00000F8016B491CE268521E8A42F8D87D2149
:104AB000017080F80180E068401EE060012069E735
:104AC0002DE9F0470A0005464FF0000601D01DB160
:104AD00020E00020BDE8F08703211046FFF756FBD9
:104AE0000028F7D037A1FBF76CFB5AE00C2927D040
:104AF00006DC082924D0092922D00A2906D11FE082
:104B00000D291DD022291BD05C2919D0202900D2C3
:104B1000761D401C01780029E8D1401B8719F91C3B
:104B20001046FFF733FB041ED4D04FF022084FF09D
:104B3000000984F800802EB1661C4FF05C0A28E062
:104B4000761CE6E73A462946601CFBF7FDFA23E0AF
:104B50001F2803D9222801D05C2830D106F801ABE8
:104B60002A7850460C2A23D006DC082A1ED0092AAF
:104B700024D00A2A06D11DE00D2A1DD0222A12D0E7
:104B80005C2A1CD010A13046FEF7DAFB361D6D1CE6
:104B9000761C28780028DBD1E01980F8018080F8A5
:104BA0000290012096E786F80080F0E7622006E098
:104BB000662004E06E2002E0722000E07420307075
:104BC000E5E700002222000075253034780000005F
:104BD00070B504000E4613D096B1207B102843D048
:104BE00008DC012816D002281ED004280AD0082884
:104BF00006D121E020283CD040283FD0802820D07A
:104C0000002070BD05213046FFF7C0FA0028F8D01B
:104C10001DA106E006213046FFF7B8FA0028F0D0C3
:104C20001BA1FBF7CEFA1DE005213046FFF7AEFAD7
:104C30000028E6D018A1F4E72046BDE87040FFF751
:104C400017BE20690028DCD0FBF7B4FA401C0546EB
:104C500001463046FFF79AFA0028D2D02A46216949
:104C6000FBF772FA012070BD2069BDE87040FFF7C4
:104C700027BF2046BDE87040FFF7AFBD2046BDE826
:104C80007040FFF77DBE00006E756C6C0000000088
:104C900066616C7365000000747275650000000049
:104CA0002DE9F04704008A4616D054F8047CD4F865
:104CB00000903E1F564500D956462046FEF764FB3D
:104CC00005468846324621465046FFF7F5FC40B17E
:104CD000C0F80090BDE8F087BDE8F0470846FEF751
:104CE00081BB44E9017955B129686A18211F8A42BC
:104CF00002D9611B091F2960C5F80480EAE7024A4E
:104D0000C2F80080E6E700003C00002010B5040077
:104D100009D02068002806D0A1680844FBF74AFAA9
:104D2000A1680844A06010BD010202030405060743
:104D300008090A0B0C0D0E0F1010010202030405E6
:104D4000060708090A0B0C0D0E0F101000000000DA
:104D5000000000000102030406070809000000002B
:104D600001020304DDDDDDDDDCBBBBDDDDDDDDDD22
:104D7000DDDDDDDD98888888888888887777777793
:104D8000778888888555555666666666666666665F
:104D9000666888888333333222222222222222220A
:104DA0002228888D382E3133352E31302E3138334C
:104DB0000000000024474E524D432C313534393128
:104DC000392E3030302C412C333032382E303931BE
:104DD00031302C4E2C31313432332E32393530359E
:104DE0002C452C332E34342C3135362E31312C30A9
:104DF00036303532352C2C2C412C562A30300000E0
:104E0000204E000800000020440000003434000858
:104E1000644E0008440000207C190000443400085F
:104E2000598F0000A44D0008010000001000000090
:104E30000000000000127A0000000000000064641E
:104E4000000400000000000000000000000000005E
:104E5000E533000889330008A14C00080000000079
:044E6000000000004E
:04000005080000ED02
:00000001FF
